:020000040040BA
:1000000090364020891D4000851D4000851D400020
:10001000851D4000851D4000851D4000000000003A
:10002000000000000000000000000000851D4000EE
:10003000851D400000000000851D40002506400091
:10004000851D4000851D4000851D4000851D400028
:10005000851D4000851D4000851D4000851D400018
:10006000851D4000000000002D1840004118400090
:1000700000000000290B4000851D4000851D400048
:100080005518400000000000851D4000851D4000FF
:10009000851D4000851D4000851D4000851D4000D8
:1000A000CD054000851D400000000000000000005C
:1000B0000000000071024000851D4000851D4000C9
:1000C000851D4000851D4000851D4000851D4000A8
:1000D00000000000851D400000000000851D40005C
:1000E00085024000851D4000851D4000851D4000A3
:1000F000851D4000851D4000851D4000000000005A
:100100000000000000000000851D4000851D40002B
:10011000851D4000000000000000000000000000FD
:10012000851D4000851D4000851D4000851D400047
:10013000851D40000000000000000000851D4000FB
:1001400010B5054C237833B9044B13B10448AFF311
:1001500000800123237010BDC8094020000000006A
:100160006C8440000C4B43B10C480D4910B5AFF303
:1001700000800C48036823B910BD0A48036833B9EE
:100180007047094B002BF7D0BDE810401847064BCD
:10019000002BF5D0184700BF000000006C84400021
:1001A000CC0940206C844000000000002DE9F041A3
:1001B00080B90C469046002A0FDD8F18084E094D75
:1001C000306821462B6898470134BC42F8D140463C
:1001D000BDE8F0814FF0FF38F9E78046F7E700BF50
:1001E00064164020DC15402070B582B0026BC36AF3
:1001F0001340019300241C4E1C4DA84214BF002044
:10020000012005010BE00E2C1ED8019A04F10C010F
:1002100001238B40134210D10134102C22D00B2C1F
:10022000F1D8019A0123A3401342F5D02B1956F8B7
:100230002330002BF0D09847EEE72B1956F82330E7
:10024000002BE9D09847E7E7019A04F10F01012359
:100250008B401342E0D02B1956F82330002BDBD013
:100260009847D9E702B070BDE01540200040064035
:1002700008B50248024B984708BD00BF00C00340C4
:10028000E901400008B50248024B984708BD00BF8D
:1002900000400640E901400008B5074B984203D0F2
:1002A000064B984204D008BD1520054B984708BD61
:1002B0002A20034B9847F6E7008000400080054065
:1002C000851A4000436823F470234360436809049F
:1002D00001F4702119434160704710B443F699232B
:1002E000046914F0010F03D1013BF9D1012009E0A9
:1002F0008368406810F0020F02D0C3F3034010700F
:100300000B8000205DF8044B704730B443F699240D
:10031000056915F0020F03D1013CF9D101200CE071
:10032000446814F0020F06D0120402F47022114344
:100330000BB141F08071C160002030BC704732B910
:1003400000EB8100036B23F001030363704700EBB4
:100350008100036B43F001030363704732B900EB84
:100360008100036B23F002030363704700EB8100FD
:10037000036B43F0020303637047042A03D06AB19E
:10038000082A16D0704700EB8100036B23F00803A6
:100390000363036B43F004030363704700EB8100C6
:1003A000036B23F008030363036B23F0040303636D
:1003B000704700EB8100036B43F008030363E1E740
:1003C00000EB81010B6B23F0F0030B630B6B1A4303
:1003D0000A6370477AB110B4144600EB81010B6BCD
:1003E00023F47F430B630A6B42EA04220A63002072
:1003F0005DF8044B70474FF0FF30704710B400EBCE
:100400008101086B80B208630C6B44EA036343EA22
:1004100002430B635DF8044B70470000F0B583B0F6
:1004200005460C46002301932A4B984213D02A4BD1
:10043000984218D0294B98421DD0294B9D4222D07A
:10044000284B9D4227D0284B9D422ED0274B9D42C2
:1004500035D003B0F0BD1F46254E21463846B04783
:100460000028FAD1E9E71F46214E21463846B04719
:100470000028FAD1E4E71F461D4E21463846B04712
:100480000028FAD1DFE71F46194E21463846B0470B
:100490000028FAD1DAE71E46164D01A93046A847D2
:1004A0000028FAD1019B2370D3E71E46114D01A904
:1004B0003046A8470028FAD1019B2370C9E71E46A1
:1004C0000C4D01A93046A8470028FAD1019B2370A2
:1004D000BFE700BF00080E40000A0E40001A0E40A1
:1004E000001C0E40004002400080024000C002405C
:1004F000551B40008318400070B50C462A4B9842AB
:1005000013D02A4B984219D0294B98421FD0294B1F
:10051000984225D0284B98422BD0284B984231D076
:10052000274B984237D0002070BD1E46254D2146EE
:100530003046A8470028FAD1012070BD1E46214D43
:1005400021463046A8470028FAD1012070BD1E463A
:100550001C4D21463046A8470028FAD1012070BD25
:100560001E46184D21463046A8470028FAD10120E2
:1005700070BD1E46144D21463046A8470028FAD1CA
:10058000012070BD1E46104D21463046A847002868
:10059000FAD1012070BD1E460B4D21463046A847BA
:1005A0000028FAD1012070BD00080E40000A0E405C
:1005B000001A0E40001C0E40004002400080024025
:1005C00000C00240431B40006D18400008B50121E7
:1005D0000E480F4B98470F4B1B686BB1013B0D4A00
:1005E00013600D4B1B6813B1013B0B4A13600B4AA0
:1005F00013680133136008BD4FF4FA72054B1A609B
:10060000074A137801331370EBE700BF00C00040C6
:100610000B1B40000C004020F0094020E80940205E
:10062000ED094020024A136801331360704700BF90
:10063000E4094020000000002DE9F04786B0BA4BE5
:100640009847BA4FFA6822F4E0621204120CB84BD1
:100650001343FB60B74B9847B74BDB6BC3F3404387
:10066000B64A13701820B64EB047B64D44F2030296
:1006700001212846B44B984740F294420121284674
:10068000B24B9847B24B002483F818434FF0807266
:100690001A60102201212846AE4B984701212846B6
:1006A000AD4B9847AD4BAE4A5A60E02287F8232005
:1006B0009C6007251D602846B047AA4FAA4B1F60C3
:1006C000AA4AAB4B1A60AB4AAB4B1A60AB4B0293D6
:1006D0004FF4612303934FF4006304932846B0471B
:1006E00002A93846A64B9847A64E3368214698681B
:1006F000A54DA847336821465868A847A348A44B8E
:100700009847A44B98478DF8164080238DF81530F4
:100710003546A14CDFF8B8A20FF2FC19D9E90089DF
:1007200007E042681368591C116018780BE09B4B76
:100730009847286842685368013B5360002BF0DA01
:100740004168A047C0B230384928F2D801A353F815
:1007500020F000BFA9084000B10840003307400066
:1007600033074000330740003307400033074000A1
:1007700033074000ED0940003307400033074000D5
:100780003307400033074000330740003307400081
:100790003307400033074000330740003307400071
:1007A0003307400033074000330740003307400061
:1007B0003307400033074000330740003307400051
:1007C0003307400033074000330740003307400041
:1007D0003307400033074000330740003307400031
:1007E0003307400033074000330740003307400021
:1007F0003307400033074000330740003307400011
:100800003307400033074000330740003307400000
:100810003307400033074000B90840003307400069
:1008200033074000C908400033074000D1084000AA
:100830003307400033074000DB0940003307400026
:1008400033074000FF0940003307400033074000F2
:10085000E1094000E709400007094000D9084000CD
:10086000C1084000F5084000D509400033074000AA
:10087000830840002F0740007D084000484B984700
:1008800057E7484B9847484B984725A3D3E900239F
:10089000464EB04742464B46454EB04702460B4691
:1008A00044484549884744E70020444B984740E77F
:1008B0000120424B98473CE70020414B984738E7DE
:1008C00001203F4B984734E702203D4B984730E7E3
:1008D00003203B4B98472CE7012000900DF11703B4
:1008E00000226F21374EB0479DF817103648324B23
:1008F00098471EE7012000900DF1150300226F219B
:10090000324EB04715E7012000900DF1160300228A
:100910006F212E4EB0470CE70000000000FEAF40F4
:100920006666666666660A40ED18400000ED00E007
:100930000003FA05691B4000000E0E40EC09402040
:10094000851A400000C00040D91A4000FB1A400040
:1009500000E100E0031B4000F31A400010E000E05B
:10096000DF93040000080E4064164020F9044000A4
:10097000601640201D044000DC15402080D1F008A6
:10098000131B400018004020052E40002C7A400028
:10099000C12D4000610C4000D12D4000911240005B
:1009A000D51240001D144000DD224000A923400064
:1009B000FD254000F87A4000FD2C40006114400005
:1009C00019154000D9114000107B40002111400052
:1009D000911640000D4B9847ABE60D4B9847A8E6A3
:1009E0000C4B9847A5E60C4B9847A2E60B4B984753
:1009F000012814BF0A480B480B4B984799E6D0478B
:100A00000A48094EB0470A48B04792E6151340001D
:100A10005513400099134000D913400001164000BF
:100A20002C7B4000587B4000C12D4000887B40005B
:100A3000C47B40002DE9F84F8488D4F5806428D029
:100A400005460F469442A8BF1446A6B2D6B14388C5
:100A50009A19B2F5806F20D9C3F5806A00F10609B2
:100A6000524609EB03013846DFF844B0D847A6EBFD
:100A70000A02494607EB0A00D8476B883344C3F3A0
:100A800009036B80AB881E44AE80A4B22046BDE84B
:100A9000F88F0548054B9847F8E7811D3246194401
:100AA0003846034B9847E8E7207C4000C12D4000C2
:100AB0002D2B40002DE9F84384881CB305460E46D3
:100AC000944228BF1446BCB103881A19B2F5806F4E
:100AD0001ED9C3F58068871D4246F818DFF8449098
:100AE000C847A4EB080206EB08013846C8472B8824
:100AF0002344C3F309032B80AB881B1BAB80204628
:100B0000BDE8F8830548064B98470020BDE8F88308
:100B1000063022461844034B9847E8E73C7C4000E7
:100B2000C12D40002D2B400010B53948394B984756
:100B300010F4002F33D0384A13780133DBB213702E
:100B4000012B02D0022B06D010BD0023334A1370B4
:100B5000334A138027E0FF2232493348334B98470A
:100B6000C3B2334A137043B9324B19782848324B19
:100B700098470022284B1A7010BD2E4C002222806C
:100B8000A3701946033120462C4B9847284B1B78FD
:100B90001C44A4F803000533294A1380E4E71E4BE4
:100BA0001B78012BD0D110F0010FCDD0254918486A
:100BB000254B9847A0B11E4B1B78002BC4D0174B78
:100BC0001B78002BC0D1164A138801339BB21380C7
:100BD0001B4A12889A420CD20122104B1A7010BD87
:100BE0001A49184B1B680B7001221948194B98477A
:100BF000E1E70B4B1B889BB20E4AD15C04480E4BBD
:100C000098470028A0D01448144B98479CE700BF91
:100C10000040024069184000F409402016134020AB
:100C20000A0E40200F0E4020100F4020350A4000D1
:100C3000F80940200C0E40206D1840005917400064
:100C4000F6094020FC09402083184000000A40209B
:100C5000040A4020B50A4000EC7B4000C12D400052
:100C600038B51B4C20461B4B98470223236080233A
:100C70002360636843F001036360636843F010031B
:100C8000636007212046144B984700220321204629
:100C9000124B9847012203212046114B984700220E
:100CA000032120460F4B9847FF22032120460E4B7D
:100CB000984700230122032120460C4DA84700221B
:100CC000032120460A4B98470123236038BD00BF0B
:100CD0000080004099024000C50240003F034000F0
:100CE0005D034000C1034000D5034000FD03400008
:100CF0007B0340002DE9F04F83B001929DF8302036
:100D0000032800F298808B461C46531EDBB2012B51
:100D100000F29680012A00F09A80022A00F0C58035
:100D20006D4B18706C4B197801F0FB0119706B4F0B
:100D30000023012238466A4EB04740F2EE50694D1A
:100D4000A8470023012259463846B04740F2EE50EA
:100D5000A8470023012201993846B04740F2EE50DF
:100D6000A8470023012221783846B04740F2EE50D0
:100D7000A8470123002261783846B04740F2EE5080
:100D8000A84748F26900574FB847544D0023012245
:100D9000AA212846DFF848A1D04740F2EE50B847D4
:100DA000DFF85891504C4A4621462846DFF85081DA
:100DB000C0474E4E2388337000230122BB212846B2
:100DC000D04740F2EE50B8474A4621462846C04731
:100DD0002388737000230122CC212846D04740F29B
:100DE000EE50B8474A4621462846C0472388B3708C
:100DF00000230122DD212846D04740F2EE50B847BB
:100E00004A4621462846C0472388F3700123002222
:100E1000EE212846D04740F2EE50B8474A462146D8
:100E20002846C0472388337132782B4B1B789A426F
:100E300040D0002008E02E482E4B9847002003E0C9
:100E40002D482C4B9847002003B0BDE8F08F00F0F0
:100E5000F301214B1970214F00233846204EB04733
:100E600040F2EE501F4DA847002301225946384654
:100E7000B04740F2EE50A8470023012201993846BE
:100E8000B04740F2EE50A8470023012221783846AF
:100E9000B04740F2EE50A8470123002211463846E1
:100EA000B04740F2EE50A8476BE740F008000A4B0D
:100EB000187037E773785B4501D00020C4E7B3783A
:100EC000019A934201D00020BEE7F078AA2814BF0F
:100ED00000200120B8E700BF171340200080004029
:100EE0000B034000010040202C1340201C13402025
:100EF0001C804000C12D40004C8040002913402040
:100F0000DB0240002DE9F04F83B0009101929DF883
:100F10003020032800F299809B46531EDBB2012B40
:100F200000F29880012A00F09C80022A00F0CA801A
:100F3000704B18706F4B197841F0040119706E4EA8
:100F40000023012230466D4DA84740F2EE506C4C14
:100F5000A0470023012200993046A84740F2EE50F6
:100F6000A0470023012201993046A84740F2EE50E5
:100F7000A047002301229BF800103046A84740F20A
:100F8000EE50A047012300229BF801103046A847ED
:100F900040F2EE50A04748F26900594FB847564D0D
:100FA0000023012219462846DFF850A1D04740F21D
:100FB000EE50B847DFF86091524C4A462146284629
:100FC000DFF85881C047504E238833700023012238
:100FD00019462846D04740F2EE50B8474A462146C7
:100FE0002846C047238873700023012219462846EB
:100FF000D04740F2EE50B8474A4621462846C047FF
:101000002388B3700023012219462846D04740F2B6
:10101000EE50B8474A4621462846C0472388F37019
:101020000123002211462846D04740F2EE50B8472F
:101030004A4621462846C0472378337131782D4AE5
:101040001278914243D0002008E03048304B984756
:10105000002003E02F482E4B9847002003B0BDE846
:10106000F08F20F0080040F00401224B1970224E4E
:1010700000233046214DA84740F2EE50204CA047B7
:101080000023012200993046A84740F2EE50A047C5
:101090000023012201993046A84740F2EE50A047B4
:1010A000002301229BF800103046A84740F2EE5082
:1010B000A0470123002211463046A84740F2EE50D7
:1010C000A04768E740F008000A4B187032E77278D2
:1010D00000998A4201D00020C0E7B27801998A4283
:1010E00001D00020BAE7F2788BF800208BF80130AD
:1010F0000120B3E718134020008000400B0340009C
:10110000010040202E13402024134020807F400007
:10111000C12D4000B07F40002A134020DB02400078
:101120002DE9F04F87B002900391049205939DF84A
:1011300040B00A2623A5D5E90045DFF898A00FF2B4
:101140008C09D9E90089CDF800B0059B049A039970
:101150000298D047074620BB4D4508BF444514D0F0
:10116000DEB1134A002320462946124FB847124BDE
:1011700098470DA3D3E9002312196B4114461D466D
:101180000A36282EDFD1012703E003210B480C4B40
:101190009847384607B0BDE8F08F3320064B984794
:1011A000E7E70127F5E700BF005ED0B200000000CE
:1011B000E0835A00CD274000010040208880400095
:1011C000FD2C4000DFE12AB300000000DF9DCB18BA
:1011D00002000000F50C40002DE9F04F87B00290AE
:1011E0000391049205939DF840B00A2623A5D5E902
:1011F0000045DFF898A00FF28C09D9E90089CDF8F5
:1012000000B0059B049A03990298D047074620BB7B
:101210004D4508BF444514D0DEB1134A0023204693
:101220002946124FB847124B98470DA3D3E9002324
:1012300012196B4114461D460A36282EDFD10127AC
:1012400003E003210B480C4B9847384607B0BDE834
:10125000F08F3320064B9847E7E70127F5E700BFFB
:10126000005ED0B200000000E0835A00CD274000AD
:1012700001004020E87F4000FD2C4000DFE12AB360
:1012800000000000DF9DCB1802000000050F4000A9
:1012900010B584B001238DF80C3000208DF80D00BE
:1012A0000223009303AB02460146064CA04720B937
:1012B0000548064B984704B010BD0548034B9847B6
:1012C000F9E700BF21114000B87D4000C12D40006A
:1012D000A07D400010B584B000208DF80C008DF882
:1012E0000D000223009303AB02460146054CA047C4
:1012F00020B90548054B984704B010BD0448034B7E
:101300009847F9E721114000D47C4000C12D4000EE
:10131000BC7C400010B584B000208DF80C008DF826
:101320000D000223009303AB04220146054CA047A5
:1013300020B90548054B984704B010BD0448034B3D
:101340009847F9E7211140006C7D4000C12D400015
:101350004C7D400010B584B001238DF80C30002086
:101360008DF80D000223009303AB04220146064CC6
:10137000A04720B90548064B984704B010BD054862
:10138000034B9847F9E700BF21114000887C4000DB
:10139000C12D4000687C400010B584B000208DF85D
:1013A0000C008DF80D000223009303AB04220146CC
:1013B000054CA04720B90548054B984704B010BD1F
:1013C0000448034B9847F9E721114000007E400094
:1013D000C12D4000E47D400010B584B001238DF89C
:1013E0000C3000208DF80D000223009303AB042283
:1013F0000146064CA04720B90548064B984704B063
:1014000010BD0548034B9847F9E700BF2111400084
:101410001C7D4000C12D4000007D400010B584B00F
:1014200000208DF80C008DF80D000223009303AB13
:1014300001220146074CA04738B19DF80C309DF8B9
:101440000D0040EA032004B010BD0348034B984749
:101450000020F8E7D9114000C07E4000C12D4000B7
:1014600070B584B000238DF80C308DF80D30054632
:1014700030B1012815D01E481E4B9847022200E0CB
:1014800002220223009303AB002108461A4CA04716
:1014900048B9294619481A4B98470024204604B0F9
:1014A00070BD0322EDE79DF80C309DF80D4044EA35
:1014B00003242046134B984709A3D3E90023124E77
:1014C000B04709A3D3E90023104EB04702460B46AC
:1014D00029460F480A4DA847E0E700BFAFF3008058
:1014E0006666666666660A400000000000FEAF4061
:1014F000307E4000C12D4000D9114000807E400068
:10150000FD2C4000DD224000A9234000FD254000C5
:10151000607E40000000000070B584B000238DF8AC
:101520000C308DF80D30032806D8DFE800F0021CDF
:10153000202410238DF80B30012000900DF10B03B7
:1015400000222921244CA047C8B10223009303ABF9
:10155000002229210120214CA047B8B92048214B65
:10156000984700240FE020238DF80B30E4E7402358
:101570008DF80B30E0E780238DF80B30DCE71A485C
:10158000184B98470024204604B070BD9DF80C50BD
:101590002C0204F470639DF80D401C432046134B4D
:1015A000984709A3D3E90023114EB04708A3D3E914
:1015B0000023104EB04702460B4629090E480F4D36
:1015C000A847E0E7AFF300806666666666660A4095
:1015D0000000000000FEAF4021114000D911400082
:1015E000507F4000C12D4000E47E4000DD224000DD
:1015F000A9234000FD254000247F4000FD2C400031
:1016000070B584B001258DF80C5000248DF80D4084
:101610008DF808408DF80940009503AB052221465E
:101620002046194EB047009502AB052221462046C0
:10163000164CA0479DF808209DF80C309A4202D025
:10164000002004B070BD00248DF80C408DF80D40D2
:10165000FF238DF808308DF80940009503AB052273
:1016600021462046B047009502AB05222146204680
:10167000064CA0479DF808009DF80C30984214BF16
:1016800000200120DDE700BF21114000D9114000FA
:101690002DE9F04F85B00023ADF80C30254B5E1ED0
:1016A000254F03F10E083D463446DFF89C90DFF8E5
:1016B0009CB0DFF88CA002E0023544450CD014F851
:1016C000012F022300932B462A210120C84701281D
:1016D000F2D05846D047EFE70025DFF87490DFF8E6
:1016E00058A0DFF870B00DE01448154B984705B0CE
:1016F000BDE8F08F41465846124B984701350237F6
:10170000A642F4D0A84616F8012F0223009303AB9B
:101710002A210120C8470128E6D11AF815309DF882
:101720000C209342E6D17A789DF80D309A42E1D1AF
:10173000E4E700BF888140009881400000814000BC
:10174000C12D4000FD2C400021114000BC80400014
:10175000D911400044814000F0B51E4B1B7893B175
:10176000002933DD024601444FF6FF701A4C12F88F
:10177000013B83EA102334F8133083EA002080B25F
:101780009142F4D1F0BD144FBD1E07F5FF77002440
:101790004FF0080E48F6DB7606E025F8023F04F528
:1017A0008074A4B2BD420DD02346724613F4004F9C
:1017B00014BF86EA43035B009BB2013A12F0FF02BA
:1017C000F4D1EAE70122034B1A70C9E74FF6FF7024
:1017D000F0BD00BF30134020341340202DE9F0410C
:1017E000044688460E4B9847054620460D4B9847C1
:1017F000054013D00C4C04F1600603E0B4420DD058
:1018000010345DB120684045F8D161682942F5D0B7
:10181000E3689847636825EA0305EFE7BDE8F081D0
:101820005D194000611940003415402008B50A21B7
:101830000148024B984708BD000E0E40DD174000DE
:1018400008B50B210148024B984708BD00100E4017
:10185000DD17400008B510210148024B984708BD2C
:1018600000140E40DD17400040697047436913F0D3
:10187000020F04D0C1F30801C161002070470120AC
:101880007047436913F0010F05D08369C3F3080360
:101890000B600020704701207047000001380228CB
:1018A00015D82DE9F0410E4614469AB10D46DFF8E1
:1018B00038800C4FD8F8000015F8011B3B6898479A
:1018C00000280ADBA81B013CF4D1BDE8F0814FF0F1
:1018D000FF3070471046BDE8F0814FF0FF30BDE8A3
:1018E000F08100BF601640206416402010B51048FB
:1018F000104B98473E2100200F4B98470F4CA047B4
:101900000028FCD00E4B98470E4A0F4B9A620F4CA2
:10191000A0470028FCD002200D4B984700200D4B1B
:1019200098470D4B98470248024B984710BD00BF9F
:1019300000A3E1115D1F4000011A4000551A40004C
:10194000651A4000013F182000060E40751A40003D
:10195000651940009D194000511E4000C06C704741
:10196000806C7047032811D0042812D002280CBFC5
:101970004FF480710021084A136B23F440730B432A
:101980001363936E13F0080FFBD070474FF4407150
:10199000F1E74FF40071EEE700060E40174A136BB3
:1019A00023F0700318431063936E13F0080F0AD1ED
:1019B0004FF4805311498A6E12F0080F03D1013B96
:1019C000F9D1012070470D4A136B23F0030343F054
:1019D00002031363936E13F0080F0AD14FF4805380
:1019E00006498A6E12F0080F05D1013BF9D101209A
:1019F0007047002070470020704700BF00060E406F
:101A0000A0B90E48036A090289B20D4A1A400D4B6B
:101A10001343194301620246936E13F0010FFBD08A
:101A2000064A116A084B0B431362704703490B6A5D
:101A3000064A1A40064B13430B62704700060E40DD
:101A4000FCFFC8FF0100370000003701FCFFC8FEA3
:101A500002003701024B986E00F48030704700BFDF
:101A600000060E404FF00052014B9A62704700BFD3
:101A700000060E40024B986E00F00200704700BF57
:101A800000060E403F281ED81F280CD8114B9A691B
:101A900001238340934318D0012303FA00F00D4B38
:101AA00018610020704720380A4BD3F80821012321
:101AB000834093430BD0012303FA00F0054BC3F896
:101AC000000100207047012070470020704700206F
:101AD000704700BF00060E4010B48901431802246D
:101AE00044504FF0FF319962196A5A605DF8044B17
:101AF0007047890105234350704700EB8111CA618B
:101B0000704700EB81114A62704700EB8111086A4F
:101B1000704710B4AC2303600B684A68B3FBF2F360
:101B20001B095C1E4FF6FE72944208D803628B6854
:101B300043605023036000205DF8044B7047012090
:101B4000FAE7436913F0020F02D0C1610020704729
:101B500001207047436913F0010F03D083690B70B4
:101B60000020704701207047F8B54FF40045814BC5
:101B70005D600A20804CA0470B20A0471020A047A2
:101B80007E4A4FF480131366C2F890305365536257
:101B9000C2F88030116F19431167516F21F4801121
:101BA000516753604FF400141466C2F890405465B6
:101BB0005462C2F88040136F23431367536F23F4BA
:101BC0000013536754604FF480031366C2F89030DB
:101BD00053655362C2F88030116F19431167516F1A
:101BE00021F48001516753604FF000631366C2F81F
:101BF000903053655362C2F88030116F19431167FA
:101C0000516F21F00061516753605D4B02211966ED
:101C1000C3F8901059655962C3F88010186F20F00E
:101C200002001867586F0843586759600121196608
:101C3000C3F8901059655962C3F88010186F20F0EE
:101C400001001867586F0843586759604FF40050F7
:101C50001866C3F8900058655862C3F880001E6F7C
:101C600026F400561E675E6F06435E6758600420C8
:101C70001866C3F8900058655862C3F880001E6F5C
:101C800026F004061E675E6F06435E675860A3F584
:101C9000007308201866C3F8900058655862C3F8AE
:101CA00080001E6F26F008061E675E6F26F008068D
:101CB0005E67586010201866C3F890005865586237
:101CC000C3F880001E6F26F010061E675E6F26F0B8
:101CD00010065E6758604FF400701866C3F89000F5
:101CE00058655862C3F880001E6F26F400761E67A0
:101CF0005E6F26F400765E6758604FF48060186669
:101D0000C3F8900058655862C3F880001E6F26F42F
:101D100080661E675E6F26F480665E6758604FF4CB
:101D200080771F61C3F8A0704FF080461661C2F83B
:101D3000A0601F6316634FF400365E61C3F8A060B5
:101D40005C61C3F8A0401966C3F8901059655962E8
:101D5000C3F880101C6F0C431C675C6F24F00104F7
:101D60005C6759601561C2F8A05015635861C3F8EB
:101D7000A000F8BD50180E40851A400000140E4017
:101D800000100E40FEE7000000B583B0254B264A48
:101D90009A4210D0254B234A9A420CD2013B9B1AFF
:101DA00023F00303043313441F4951F8040B42F892
:101DB000040B9A42F9D11E4B1E4A9A420AD2013BA9
:101DC0009B1A23F0030304331344002142F8041B3D
:101DD0009342FBD1184A194B23F07F039360EFF332
:101DE0001083B3FA83F35B09019372B6BFF35F8F7D
:101DF0000022134B1A700199124A136843F47003BE
:101E00001360BFF34F8FBFF36F8F29B101220C4BCB
:101E10001A70BFF35F8F62B60B4B98470B4B984716
:101E2000FEE700BF000040206C844000C80940204D
:101E300090164020C809402000ED00E0000040005E
:101E40001000402088ED00E0DD2A40003906400007
:101E50003B4B1B6B03F00303012B1DD083B1022B03
:101E600036D0374B1B6B03F07003702B5FD0344BB5
:101E70001A6B3449C2F302120B68D3400B607047EF
:101E8000314B5B6913F0800F14BF4FF400424FF4E5
:101E9000FA422C4B1A60E4E7294B1B6A13F0807F4F
:101EA00003D02A4A274B1A60DBE7294A254B1A60E0
:101EB000234B1B6A03F07003102B05D0202BD0D1CD
:101EC000224A204B1A60CCE7224A1E4B1A60C8E710
:101ED0001B4B1B6A13F0807F16D01C4A194B1A60EB
:101EE000174B1B6B03F00303022BBAD1144A916A00
:101EF000926A1448C1F30A41036801FB0333D2B26A
:101F0000B3FBF2F30360ACE7114A0E4B1A600C4BC3
:101F10001B6A03F07003102B05D0202BE0D10B4A75
:101F2000084B1A60DCE70B4A064B1A60D8E7054AF3
:101F300013680949A1FB03135B081360704700BFD6
:101F400000060E401400402010180E40001BB70081
:101F500000093D0000127A00ABAAAAAA164B9842CB
:101F600013D9164B984215D9154B984216D9154BD3
:101F7000984217D9144B984218D9144B984294BFE1
:101F8000134A144A144B1A6070474FF08062124B88
:101F90001A607047114A104B1A607047104A0E4B76
:101FA0001A6070470F4A0C4B1A6070474FF00422BA
:101FB000094B1A60704700BFBFF35E017FE7BD02A7
:101FC0003FDB1C04FFCE7B05BFC2DA067FB63908B3
:101FD0000005000400060004000C0E40000100048F
:101FE00000020004000300040A4B1B6853B1094BB4
:101FF0001B681A180849914208DB1046054A106010
:1020000018467047054A034B1A60F0E74FF0FF305F
:10201000704700BFA4154020FCFF452090384020A9
:102020004FF0FF3070474FF400534B600020704773
:10203000012070470020704781F0004102E000BF9E
:1020400083F0004330B54FEA41044FEA430594EA78
:10205000050F08BF90EA020F1FBF54EA000C55EAB3
:10206000020C7FEA645C7FEA655C00F0E2804FEA84
:102070005454D4EB5555B8BF6D420CDD2C4480EA66
:10208000020281EA030382EA000083EA010180EA96
:10209000020281EA0303362D88BF30BD11F0004FE4
:1020A0004FEA01314FF4801C4CEA113102D040421A
:1020B00061EB410113F0004F4FEA03334CEA133355
:1020C00002D0524263EB430394EA050F00F0A7806D
:1020D000A4F10104D5F1200E0DDB02FA0EFC22FA68
:1020E00005F2801841F1000103FA0EF2801843FA5C
:1020F00005F359410EE0A5F120050EF1200E012A4D
:1021000003FA0EFC28BF4CF0020C43FA05F3C0188A
:1021100051EBE37101F0004507D54FF0000EDCF103
:10212000000C7EEB00006EEB0101B1F5801F1BD3AC
:10213000B1F5001F0CD349085FEA30004FEA3C0CB0
:1021400004F101044FEA445212F5800F80F09A80A6
:10215000BCF1004F08BF5FEA500C50F1000041EBAA
:10216000045141EA050130BD5FEA4C0C404141EBAE
:10217000010111F4801FA4F10104E9D191F0000FD5
:1021800004BF01460020B1FA81F308BF2033A3F158
:102190000B03B3F120020CDA0C3208DD02F1140C4F
:1021A000C2F10C0201FA0CF021FA02F10CE002F18A
:1021B0001402D8BFC2F1200C01FA02F120FA0CFC83
:1021C000DCBF41EA0C019040E41AA2BF01EB0451CC
:1021D000294330BD6FEA04041F3C1CDA0C340EDCCA
:1021E00004F11404C4F1200220FA04F001FA02F30D
:1021F00040EA030021FA04F345EA030130BDC4F1CB
:102200000C04C4F1200220FA02F001FA04F340EABF
:102210000300294630BD21FA04F0294630BD94F070
:10222000000F83F4801306BF81F480110134013D57
:102230004EE77FEA645C18BF7FEA655C29D094EAC8
:10224000050F08BF90EA020F05D054EA000C04BF46
:102250001946104630BD91EA030F1EBF0021002031
:1022600030BD5FEA545C05D14000494128BF41F0D0
:10227000004130BD14F580043CBF01F5801130BD34
:1022800001F0004545F0FE4141F470014FF00000BF
:1022900030BD7FEA645C1ABF194610467FEA655C70
:1022A0001CBF0B46024650EA013406BF52EA033512
:1022B00091EA030F41F4002130BD00BF90F0000F00
:1022C00004BF0021704730B54FF4806404F132043C
:1022D0004FF000054FF0000150E700BF90F0000FF5
:1022E00004BF0021704730B54FF4806404F132041C
:1022F00010F0004548BF40424FF000013EE700BFEC
:1023000042004FEAE2014FEA31014FEA02701FBF7B
:1023100012F07F4393F07F4F81F06051704792F04D
:10232000000F14BF93F07F4F704730B54FF46074C7
:1023300001F0004521F0004120E700BF50EA010212
:1023400008BF704730B54FF000050AE050EA0102BF
:1023500008BF704730B511F0004502D5404261EB2F
:1023600041014FF4806404F132045FEA915C3FF470
:10237000DCAE4FF003025FEADC0C18BF03325FEA09
:10238000DC0C18BF033202EBDC02C2F1200300FABE
:1023900003FC20FA02F001FA03FE40EA0E0021FAE3
:1023A00002F11444C1E600BF70B54FF0FF0C4CF4CD
:1023B000E06C1CEA11541DBF1CEA135594EA0C0F83
:1023C00095EA0C0F00F0DEF82C4481EA030621EABE
:1023D0004C5123EA4C5350EA013518BF52EA0335F9
:1023E00041F4801143F4801338D0A0FB02CE4FF0AB
:1023F0000005E1FB02E506F00042E0FB03E54FF0DB
:102400000006E1FB03569CF0000F18BF4EF0010ED2
:10241000A4F1FF04B6F5007F64F5407404D25FEACE
:102420004E0E6D4146EB060642EAC62141EA555181
:102430004FEAC52040EA5E504FEACE2EB4F1FD0CC3
:1024400088BFBCF5E06F1ED8BEF1004F08BF5FEA41
:10245000500E50F1000041EB045170BD06F00046F3
:1024600046EA010140EA020081EA0301B4EB5C04A0
:10247000C2BFD4EB0C0541EA045170BD41F4801198
:102480004FF0000E013C00F3AB8014F1360FDEBFBD
:10249000002001F0004170BDC4F10004203C35DA99
:1024A0000C341BDC04F11404C4F1200500FA05F31C
:1024B00020FA04F001FA05F240EA020001F00042BD
:1024C00021F0004110EBD37021FA04F642EB060133
:1024D0005EEA430E08BF20EAD37070BDC4F10C045D
:1024E000C4F1200500FA04F320FA05F001FA04F221
:1024F00040EA020001F0004110EBD37041F100010D
:102500005EEA430E08BF20EAD37070BDC4F1200517
:1025100000FA05F24EEA020E20FA04F301FA05F27F
:1025200043EA020321FA04F001F0004121FA04F227
:1025300020EA020000EBD3705EEA430E08BF20EAF7
:10254000D37070BD94F0000F0FD101F00046400031
:1025500041EB010111F4801F08BF013CF7D041EAB3
:10256000060195F0000F18BF704703F000465200B7
:1025700043EB030313F4801F08BF013DF7D043EA88
:102580000603704794EA0C0F0CEA135518BF95EA3E
:102590000C0F0CD050EA410618BF52EA4306D1D1C5
:1025A00081EA030101F000414FF0000070BD50EAE4
:1025B000410606BF1046194652EA430619D094EA6E
:1025C0000C0F02D150EA013613D195EA0C0F05D158
:1025D00052EA03361CBF104619460AD181EA0301AC
:1025E00001F0004141F0FE4141F470014FF0000064
:1025F00070BD41F0FE4141F4780170BD70B54FF0FF
:10260000FF0C4CF4E06C1CEA11541DBF1CEA13557E
:1026100094EA0C0F95EA0C0F00F0A7F8A4EB050460
:1026200081EA030E52EA03354FEA013100F0888057
:102630004FEA03334FF0805545EA131343EA126320
:102640004FEA022245EA111545EA10654FEA0026D5
:102650000EF000419D4208BF964244F1FD0404F58E
:10266000407402D25B084FEA3202B61A65EB0305EA
:102670005B084FEA32024FF480104FF4002CB6EBA7
:10268000020E75EB030E22BFB61A754640EA0C0027
:102690005B084FEA3202B6EB020E75EB030E22BF67
:1026A000B61A754640EA5C005B084FEA3202B6EBA8
:1026B000020E75EB030E22BFB61A754640EA9C0067
:1026C0005B084FEA3202B6EB020E75EB030E22BF37
:1026D000B61A754640EADC0055EA060E18D04FEAF5
:1026E000051545EA16754FEA06164FEAC30343EA95
:1026F00052734FEAC2025FEA1C1CC0D111F4801F62
:102700000BD141EA00014FF000004FF0004CB6E75A
:1027100011F4801F04BF01430020B4F1FD0C88BFF9
:10272000BCF5E06F3FF6AFAEB5EB030C04BFB6EB04
:10273000020C5FEA500C50F1000041EB045170BDF7
:102740000EF0004E4EEA113114EB5C04C2BFD4EB24
:102750000C0541EA045170BD41F480114FF0000EA8
:10276000013C90E645EA060E8DE60CEA135594EA24
:102770000C0F08BF95EA0C0F3FF43BAF94EA0C0F27
:102780000AD150EA01347FF434AF95EA0C0F7FF49C
:1027900025AF104619462CE795EA0C0F06D152EAF0
:1027A00003353FF4FDAE1046194622E750EA4106D4
:1027B00018BF52EA43067FF4C5AE50EA41047FF4E5
:1027C0000DAF52EA43057FF4EBAE12E753B94AB9B5
:1027D000002908BF00281CBF4FF0FF314FF0FF3029
:1027E00000F07AB9ADF1080C6DE904CE00F006F8FE
:1027F000DDF804E0DDE9022304B070472DE9F0477D
:102800008C460D460446089E002B51D18A4217463D
:102810006DD9B2FA82FEBEF1000F0BD0CEF1200CC2
:1028200001FA0EF520FA0CFC02FA0EF74CEA050C40
:1028300000FA0EF44FEA174A250CBCFBFAF81FFA0F
:1028400087F90AFB18CC45EA0C4508FB09F3AB42B3
:102850000AD9ED1908F1FF3280F02381AB4240F232
:102860002081A8F102083D44ED1AA4B2B5FBFAF0AC
:102870000AFB105544EA054400FB09F9A14509D9B2
:10288000E41900F1FF3380F00A81A14540F207818D
:1028900002383C44A4EB090440EA08400021002E21
:1028A00061D024FA0EF4002334607360BDE8F08731
:1028B0008B4207D9002E54D0002186E8210008461B
:1028C000BDE8F087B3FA83F1002940F08E80AB4277
:1028D00002D3824200F2FA80841A65EB03050120DC
:1028E000AC46002E3FD086E81010BDE8F08712B944
:1028F0000127B7FBF2F7B7FA87FEBEF1000F34D11C
:10290000EB1B3A0C1FFA87FC0121B3FBF2F8250CF4
:1029100002FB183345EA03450CFB08F3AB4207D929
:10292000ED1908F1FF3002D2AB4200F2D1808046AF
:10293000ED1AA3B2B5FBF2F002FB105543EA0544D1
:102940000CFB00FCA44507D9E41900F1FF3302D2C7
:10295000A44500F2B8801846A4EB0C0440EA0840F5
:102960009DE731463046BDE8F087CEF1200405FAF8
:102970000EF307FA0EF720FA04F83A0C25FA04F4DD
:1029800048EA0308B4FBF2F14FEA184502FB114490
:102990001FFA87FC45EA044501FB0CF3AB4200FA41
:1029A0000EF409D9ED1901F1FF3080F08A80AB42B5
:1029B00040F2878002393D44EB1A1FFA88F5B3FBD9
:1029C000F2F002FB103345EA034500FB0CF3AB4287
:1029D00007D9ED1900F1FF386FD2AB426DD902383B
:1029E0003D44EB1A40EA01418FE7C1F1200722FA8A
:1029F00007F88B4005FA01F448EA030320FA07FEC2
:102A00004FEA134CFD404EEA040EB5FBFCF94FEAC9
:102A10001E440CFB19551FFA83F844EA054509FBCF
:102A200008F4AC4202FA01F200FA01FA08D9ED18F2
:102A300009F1FF3043D2AC4241D9A9F102091D444A
:102A40002D1B1FFA8EFEB5FBFCF00CFB10554EEA59
:102A5000054400FB08F8A04507D9E41800F1FF354C
:102A600029D2A04527D902381C4440EA0940A4EBEA
:102A70000804A0FB02894C45C6464D4615D312D02A
:102A800056B1BAEB0E0364EB050404FA07F7CB402A
:102A90001F43CC40376074600021BDE8F0871846C2
:102AA000F8E69046E0E6C245EAD2B8EB020E69EBE2
:102AB00003050138E4E72846D7E7404691E7814619
:102AC000BEE7014678E702383C4445E7084608E798
:102AD000A8F102083D442BE7704700BF70B50F4EC8
:102AE0000F4D761BB61018BF002405D0013455F8E1
:102AF000043B9847A642F9D10A4E0B4D761B05F0D0
:102B00009FFCB61018BF002406D0013455F8043BD2
:102B10009847A642F9D170BD70BD00BF4C844000FB
:102B20004C844000548440004C844000844641EA78
:102B3000000313F003036DD1403A41D351F8043B35
:102B400040F8043B51F8043B40F8043B51F8043B87
:102B500040F8043B51F8043B40F8043B51F8043B77
:102B600040F8043B51F8043B40F8043B51F8043B67
:102B700040F8043B51F8043B40F8043B51F8043B57
:102B800040F8043B51F8043B40F8043B51F8043B47
:102B900040F8043B51F8043B40F8043B51F8043B37
:102BA00040F8043B51F8043B40F8043B51F8043B27
:102BB00040F8043B51F8043B40F8043B403ABDD296
:102BC000303211D351F8043B40F8043B51F8043B38
:102BD00040F8043B51F8043B40F8043B51F8043BF7
:102BE00040F8043B103AEDD20C3205D351F8043BC7
:102BF00040F8043B043AF9D2043208D0D2071CBF93
:102C000011F8013B00F8013B01D30B8803806046BB
:102C1000704700BF082A13D38B078DD010F0030331
:102C20008AD0C3F10403D21ADB071CBF11F8013BA1
:102C300000F8013B80D331F8023B20F8023B7BE7F0
:102C4000043AD9D3013A11F8013B00F8013BF9D21B
:102C50000B7803704B7843708B78837060467047B5
:102C600070B4860746D0541E002A41D0CAB203462B
:102C700002E014F1FF343BD303F8012B9D07F8D198
:102C8000032C2ED9CDB245EA05250F2C45EA054582
:102C900019D903F110022646103E0F2E42F8105C9F
:102CA00042F80C5C42F8085C42F8045C02F1100245
:102CB000F2D8A4F1100222F00F0204F00F04103237
:102CC000032C13440DD91E462246043A032A46F823
:102CD000045BFAD8221F22F003020432134404F0EA
:102CE00003042CB1C9B21C4403F8011B9C42FBD164
:102CF00070BC704714460346C2E700BF0FB400B56E
:102D0000074983B004AB086853F8042B816801932A
:102D100000F00EFA03B05DF804EB04B0704700BF9A
:102D200018004020F0B5054689B008460C4600F072
:102D300047F9AB6B214F04940126441C04A90222DD
:102D400003940590AC68069707960191029253B3DD
:102D5000636E13F0010FB4F90C309AB201D19005F3
:102D600025D5910406D4626E43F4005322F4005238
:102D7000A3816266284601AA214603F011F8636E1A
:102D800000280CBF0A254FF0FF35DA0702D4A389CB
:102D90009B0502D5284609B0F0BDA06D03F0EAF905
:102DA000284609B0F0BD284602F0EEFDD0E7A06D40
:102DB00003F0DEF9B4F90C309AB2D2E7B8804000E3
:102DC000024B01461868FFF7ADBF00BF1800402056
:102DD00038B50C46054608B1836B63B128462146D9
:102DE00004F080FA50B994E80C00013B511C84E8CF
:102DF0000A00107838BD02F0C7FDEFE74FF0FF3052
:102E000038BD00BF00290CBF022200224FF48063AE
:102E100000F000B82DE9F043614C256883B004460A
:102E20000F4690461E4615B1AB6B002B64D0B8F12F
:102E3000020F06D0B8F1010F00F29F80002EC0F201
:102E40009C80636ED80734D52146284602F032FDB7
:102E5000216B41B104F14003994202D0284602F0AF
:102E6000B9FE00232363B4F90C300022A261626032
:102E70001A063AD423F44A6323F00303B8F1020F8D
:102E8000A3811DD001AB6A462146284603F074F9A0
:102E9000A3891843A081002E32D1009E304603F052
:102EA000E3F9074600286BD0A38943F08003A38190
:102EB00028E0A3899905C7D4A06D03F059F9C3E7A9
:102EC0000025616E002604F1430243F00203012055
:102ED000A660CE07A38122602261606101D49805BB
:102EE0003ED5284603B0BDE8F0832169284602F0AC
:102EF00071FEB4F90C30BDE7284602F045FD96E7B7
:102F0000002FCBD0AB6B002B33D0009BB4F90C203F
:102F100027609E421CBF42F40062A281B8F1010FFB
:102F200004BF42F00102A28192B212F008032761AD
:102F300066610ED0D1071AD5656E7642002315F072
:102F40000105A661A36009D00025284603B0BDE8AD
:102F5000F083A360656E15F00105F5D19305C0D42B
:102F6000A06D03F007F9284603B0BDE8F083A66022
:102F7000F0E7284602F008FDC7E74FF0FF35B0E75D
:102F8000DDF80090B14504D0484603F06DF90746DE
:102F900020B9B4F90C304FF0FF3592E74E4683E785
:102FA00018004020000000000000000000000000A9
:102FB0000000000000000000000000000000000011
:102FC00090F800F06DE9024520F007016FF0000C69
:102FD00010F0070491F820F040F049804FF0000411
:102FE0006FF00700D1E9002391F840F000F10800EC
:102FF00082FA4CF2A4FA8CF283FA4CF3A2FA8CF324
:103000004BBBD1E9022382FA4CF200F10800A4FA8A
:103010008CF283FA4CF3A2FA8CF3E3B9D1E90423DE
:1030200082FA4CF200F10800A4FA8CF283FA4CF315
:10303000A2FA8CF37BB9D1E9062301F1200182FACF
:103040004CF200F10800A4FA8CF283FA4CF3A2FAD5
:103050008CF3002BC6D0002A04BF04301A4612BAE3
:10306000B2FA82F2FDE8024500EBD2007047D1E9E6
:10307000002304F00305C4F100004FEAC50514F075
:10308000040F91F840F00CFA05F562EA05021CBF46
:1030900063EA050362464FF00004A9E72DE9F84F03
:1030A0004B6E9C0493462FD59368126853B30E461B
:1030B000074602F1080919E920045FEA9A0817D0C7
:1030C000043D002401E0A04510D0324655F8041F0D
:1030D000384602F0FBFC431C04F10104F3D1002349
:1030E000CBF80830CBF80430BDE8F88FDBF80830B7
:1030F0002AF0030AA3EB0A03CBF8083009F1080908
:10310000002BD8D10020EAE702F04AFE0023CBF8DA
:103110000830CBF80430BDE8F88F00BF93680BB1DE
:10312000FFF7BCBF10B41846536010BC704700BF17
:103130002DE9F04FC1B01D468A46914604460890DD
:1031400003F004F8036815931846FFF739FF0E954E
:1031500014901CB1A36B002B00F05F82DAF864308E
:10316000BAF90C2013F0010F93B202D1990540F186
:1031700075829F040AD4DAF8641042F4005321F4F3
:103180000051AAF80C30CAF864109BB21E0740F137
:103190002382DAF81020002A00F01E8203F01A02BF
:1031A0000A2A00F03E8200231846119313931293CB
:1031B00025932493189319930B9330AB239398463C
:1031C00016901790CDF828A099F800304C46EBB136
:1031D000252B02D11AE0252B03D014F8013F002B38
:1031E000F9D1A4EB09058DB1249B259AC8F800906C
:1031F00001332A44072BC8F804502592249300F386
:10320000018208F108080B9B2B440B932378002BB9
:1032100000F0F08300231A468DF86F3019460C93A6
:103220009B4666784FF0FF3304F10109099309F1D9
:103230000109A6F12003582B00F2BF83DFE813F049
:10324000E002BD03BD034F03BD03BD03BD03BD03CA
:10325000BD03BD0354030803BD031A02E802BD0306
:1032600003033A033A033A033A033A033A033A03AD
:103270003A033A03BD03BD03BD03BD03BD03BD0354
:10328000BD03BD03BD03BD0349036203BD03620368
:10329000BD03BD03BD03BD03A203BD03BD036F009A
:1032A000BD03BD03BD03BD03BD035900BD03BD0385
:1032B0001E03BD03BD03BD03BD03BD03BD03BD03AD
:1032C000BD03BD03BD0324037302620362036203F3
:1032D000B7027302BD03BD03BC02BD03C902710086
:1032E0000D034702BD035202BD035B00BD03BD03D6
:1032F0001F024BF0100B1BF0200F40F053830E9A6F
:103300001BF0100F134640F0B4851BF0400F00F087
:10331000B08514880432002501230E9214E04BF08E
:10332000100B1BF0200340F032831BF0100240F022
:1033300089851BF0400300F085850E9913460A46E7
:1033400004320C880E9200254FF0000A8DF86FA011
:1033500009994A1C00F00B822BF08002069254EA75
:10336000050240F00A82002940F06F84002B40F0F3
:103370002D851BF001030D9300F0688640AF3023CC
:1033800007F8413D099B0D9A9342B8BF1346079336
:1033900000231093BAF1000F02D0079B013307936B
:1033A000069B13F002030F9302D0079B023307938F
:1033B000069B13F0840540F01B830C9B079AA3EB3C
:1033C000020BBBF1000F40F31383BBF1100F2599E3
:1033D000249A28DD43461024A846DDF820A00A9D43
:1033E00006E0ABF1100BBBF1100F03F1080318DD81
:1033F0000132B94824921031072A259183E811003F
:10340000EFDD23AA29465046FFF788FE002840F04A
:103410006A83ABF1100BBBF1100F2599249A30ABE6
:10342000E6DC454698460132AB4B24920BEB010497
:10343000072A259488E8080800F3CD849DF86FA03A
:1034400008F10808BAF1000F0ED0249B01330134B3
:103450000DF16F010122072B2594249388E80600C3
:1034600000F30A8408F108080F9B6BB1249B013319
:1034700002341CA90222072B2594249388E8060015
:1034800000F3068408F10808802D00F02E83099BC4
:103490000D9AA3EB020ABAF1000F3BDDBAF1100F4F
:1034A000249B8E4D2BDD42462146B0464FF0100B3B
:1034B0002E46089C0A9D06E0AAF1100ABAF1100FE8
:1034C00002F1080217DD01331031072B25912493F7
:1034D00082E84008F0DD23AA29462046FFF71EFEB9
:1034E000002840F00083AAF1100ABAF1100F2599C4
:1034F000249B30AAE7DC35460C464646904601330D
:103500005444072B2594249388E8200400F3A983CE
:1035100008F10808069BDB0500F18582249B0D99C4
:10352000C8F8007001330C44072B2594C8F8041028
:10353000249300F3758308F10808069B59073BD5CF
:103540000C9B079A9D1A002D36DD102D249B21DD42
:103550001026089FDDF828A004E0103D102D08F18A
:10356000080817DD01335C4A24931034072B259497
:1035700088E84400F1DD23AA51463846FFF7CEFD26
:10358000002840F03F82103D102D259C249B0DF11A
:10359000C008E7DC0133504A24932C44072B2594C0
:1035A00088E8240008DD23AA0A990898FFF7B6FDE9
:1035B000002840F04783259C0B9B0C9A07998A4270
:1035C000ACBF9B185B180B93002C40F03383002397
:1035D00024930DF1C008F7E55146089801F096F8DC
:1035E000002838D0DAF86430DD0704D4BAF80C309B
:1035F0009C0540F1CA854FF0FF330B930B9841B007
:10360000BDE8F08F23AA0A990898FFF787FD0028E4
:1036100040F018830DF1C008F5E5089802F0B4F900
:103620009CE5BAF90E20002AFFF6BDADDAF8642059
:10363000D00705D4990503D4DAF8580002F09AFDB2
:103640002B464A465146089801F01EF80B900B98FD
:1036500041B0BDE8F08FBAF80C309FE5DAF85800B9
:1036600002F086FDBAF90C2093B282E50C980E9315
:1036700040420C904BF0040B99F80060D7E5002A0B
:1036800040F0DF87164B18931BF0200F40F0B984F1
:103690000E9A1BF0100F134640F0DC831BF0400F16
:1036A00000F0D883043314880E9300251BF0010F1B
:1036B00000F0228354EA050300F01E8330238DF8C6
:1036C00070308DF871604BF0020B02233CE64BF03A
:1036D000200B99F80060AAE50082400010824000AB
:1036E000E08140000E9A176800248DF86F40151D88
:1036F000002F00F04E86099A531C00F0CC8521461D
:10370000384603F085F8002800F09786C31B0D9318
:1037100009940E95CDF818B023EAE373079310943B
:103720009DF86FA036E6002A40F096871BF0200F28
:1037300040F05A841BF0100F40F0A2831BF0400FA2
:1037400000F09E830E99B1F900400431E51722463E
:103750002B460E91002A73F10003C0F28784099969
:103760009DF86FA04A1C4FF001037FF4F5AD54EAB9
:10377000050200F06C82CDF818B0012B00F0088330
:10378000022B40F09582189830AF230904F00F0106
:1037900043EA05732A091C461546435C07F8013DB8
:1037A00054EA0503F1D130ABDB1B0D93EAE54BF096
:1037B000400B99F800603AE599F800606C2E03BF61
:1037C00099F801604BF0200B09F101094BF0100B47
:1037D0002DE5002A40F04C871BF0200F40F03F857C
:1037E0001BF0100F40F0FC801BF0400F00F0F88041
:1037F0000E9A136804320E92BDF82C201A80E3E46E
:1038000099F8006000297FF412AD012220210EE515
:1038100099F800602A2E09F1010000F0F186A6F166
:103820003003092B814698BF002000F23D8619F82D
:10383000016B00EB800003EB4000A6F13003092B85
:10384000F5D90990F5E44BF0800B99F80060EEE4AF
:1038500099F8006001222B21E9E40E9AAE4B14681E
:1038600018937826302304328DF870304BF0020B19
:103870000E9200258DF87160022365E5002A40F064
:10388000E486A64B1893FFE60E99CDF818B00A68A7
:103890008DF8982000230A469A468DF86F3004323E
:1038A00001230793CDF824A0CDF840A00E920D93EC
:1038B00026AF75E5A6F13003002019F8016B00EB87
:1038C000800003EB4000A6F13003092BF5D90C90E2
:1038D000AFE4002A40F0C8864BF0100B26E74BF00F
:1038E000010B99F80060A2E40E9C23680C93184623
:1038F0000028234603F10403FFF6B8AE0E9399F8AF
:10390000006094E4002A40F0B7860E9D073525F04C
:10391000070303F108020E921A6813925B68129370
:10392000129B139D23F00044284621464FF0FF329E
:103930007B4B04F03DF8002840F0A2832846214646
:103940004FF0FF32764B04F015F8002840F09883D2
:10395000169A1398179B129904F002F8002840F069
:1039600035849DF86FA06F4F6F4B032200212BF021
:103970008000079209910690472ED8BF1F460D92EE
:10398000109107E54BF0080B99F800604FE40E9D8D
:10399000073525F0070303F10802D3E900450E922D
:1039A0000023D1E40E9D073525F0070303F108023B
:1039B000D3E900450E920123C6E4002A40F0508668
:1039C000C6B1002301229A4607928DF89860CDF87F
:1039D00018B08DF86F30099310930D9226AFDFE485
:1039E0000E9A136804320E920B9A1A60FFF7ECBB22
:1039F000259C27E5259BDDF828A0002B40F0948529
:103A000000232493DAF8643013F0010FBAF80C3075
:103A100002D19A0540F149825B063FF5ECAD0B9867
:103A200041B0BDE8F08F652E40F3B280169A13982E
:103A3000179B129903F08AFF002800F06081249BF5
:103A40003A4AC8F80020013301340122072B25949B
:103A50002493C8F8042000F3BF8308F108081D9BD5
:103A6000119A259C934203DB069BDF077FF565AD2A
:103A7000249B1499159AC8F8002001330C44072B95
:103A8000C8F804102594249300F3F88308F108087B
:103A9000119B5E1E002E7FF750AD102E249B244DEF
:103AA00040F3DD811027DDF820A0DDF828B005E027
:103AB00008F10808103E102E40F3D1810133103474
:103AC000072B2594249388E8A000F1DD23AA59460A
:103AD0005046FFF723FB002840F0CD83259C249B14
:103AE0000DF1C008E6E7AA468CE70C9B079AA3EB0A
:103AF000020ABAF1000F7FF7CAACBAF1100F249B8B
:103B00000B4D39DD42462146B0464FF0100B2E4694
:103B1000089C0A9D15E000BFE0814000CC81400078
:103B2000FFFFEF7FC0814000BC814000FC8140006E
:103B300010824000AAF1100ABAF1100F02F1080237
:103B400016DD01331031072B2591249382E84008BC
:103B5000F0DD23AA29462046FFF7E0FA0028C2D16B
:103B6000AAF1100ABAF1100F2599249B30AAE8DCBB
:103B700035460C464646904601335444072B25945F
:103B8000249388E8200400F3648208F108087EE4A6
:103B9000119B249E012B40F3FD810136013401234A
:103BA000072E25942496C8F80070C8F8043000F356
:103BB0000E8208F10808149A159BC8F800300136E7
:103BC0001444072E25942496C8F8042000F32E826E
:103BD00008F10808179B169A1398129903F0B6FE7D
:103BE000119B002840F00681013B013601371C443F
:103BF000072E24962594C8F80070C8F8043000F306
:103C0000D98108F10808199AC8F80420013614442B
:103C10001FAB072E25942496C8F800307FF78BAC95
:103C200023AA0A990898FFF779FA58B9259C0DF14B
:103C3000C00882E423AA0A990898FFF76FFA0028BF
:103C40003FF4C5ACDDF828A0DCE6DDF818B0012BA8
:103C500000F02181022B27D1CDF818B000240025D7
:103C600091E523AA0A990898FFF758FA0028E9D1A4
:103C7000259C0DF1C0084DE423AA0A990898FFF786
:103C80004DFA0028DED1259C0DF1C008FFF7ECBBF2
:103C900023AA0A990898FFF741FA0028D2D1259C57
:103CA0000DF1C008FFF7F0BBCDF818B000240025D7
:103CB00030A900E03946E20842EA4572E80804F01B
:103CC000070305461446303354EA050201F8013C67
:103CD00001F1FF37EED1069AD2077FF564AD302BA4
:103CE0003FF461AD3023023907F8013C30AB5B1A79
:103CF0000D930F46FFF746BB0223FFF725BB1D9927
:103D0000002940F37482109B119A9342A8BF134676
:103D1000002B1E460DDD249BC8F80070013334448F
:103D2000072B2594C8F80460249300F3248308F13A
:103D30000808109B002EA8BF9B1B002B1E4640F3BB
:103D4000D080102E249BC04D40F3B78022464FF008
:103D5000100ADDF820B00A9C05E008F10808103EC2
:103D6000102E40F3A98001331032072B25922493A3
:103D700088E82004F1DD23AA21465846FFF7CEF952
:103D8000002840F02483259A249B0DF1C008E6E723
:103D9000002D08BF0A2C7CD330AF204629460A22CA
:103DA0000023FEF713FD303207F8012D2046294687
:103DB00000230A22FEF70AFD04460D4654EA0503D5
:103DC000EBD130ABDB1B0D93FFF7DCBA099B0D93F6
:103DD00030AFFFF7D7BA23AA0A990898FFF79EF9E0
:103DE00000287FF42FAF9DF86FA0259C0DF1C0082F
:103DF000FFF728BB5F1E002F7FF705AF102F924DF6
:103E000040F30A814FF0100ADDF820B005E008F118
:103E10000808103F102F40F3FF8001361034072EA2
:103E20002594249688E82004F1DD23AA0A995846AF
:103E3000FFF774F900287FF405AF259C249E0DF14F
:103E4000C008E6E70E990A4604320C680E92002577
:103E5000FFF77ABA1C6804330E93002526E4013379
:103E60003444072B2594249388E860007FF763ABE4
:103E7000D6E604321C680E9201230025FFF764BACF
:103E80000E9A146813460433E5170E9322462B4608
:103E900060E4DDF818B0CDF818B040AF303401233D
:103EA00007F8414D0D93FFF76DBADAF8580002F0AC
:103EB00061F9BAF80C30AFE5144601333444072BEE
:103EC0002594249388E8600040F36D8123AA0A9921
:103ED0000898FFF723F900287FF4B4AE259C0DF174
:103EE000C0081D9B119A934280F25881249A14981D
:103EF0001599C8F8001001320444072A2594C8F81F
:103F00000400249200F3528108F10808119A1099D4
:103F1000D31A561A9E42A8BF1E46002E0EDD249AC2
:103F2000C8F8046001320F443444072AC8F800700E
:103F30002594249200F33C8208F10808002EACBFBF
:103F40009E1B1E46002E7FF7F8AA102E249B3E4D86
:103F500085DD1027DDF820A0DDF828B005E008F1A8
:103F60000808103E102E7FF77AAF01331034072B6C
:103F70002594249388E8A000F1DD23AA59465046F1
:103F8000FFF7CCF8002840F07681259C249B0DF1AA
:103F9000C008E6E7069BD8073FF5FFAD01360134C0
:103FA0000123072E25942496C8F80070C8F8043021
:103FB0007FF727AE23AA0A990898FFF7AFF80028E1
:103FC0007FF440AE259C249E0DF1C0081BE623AA79
:103FD0000A990898FFF7A2F800287FF433AE259CD1
:103FE000249E0DF1C008E6E50E9D073525F0070576
:103FF000D5E9002305F108010E9114461D46FFF78F
:10400000A9BB0E9D073525F0070303F108020E92A8
:10401000D3E90045FFF74ABB01363C44072E2594FF
:10402000249688E8A0007FF7ECADC3E723AA0A999D
:104030000898FFF773F800287FF404AE259C249EAF
:104040000DF1C008C6E500BF1082400030AFFFF799
:1040500099B923AA0A990898FFF760F800287FF415
:10406000F1AD259C0DF1C008FFF711BA4FF02D0AF4
:10407000644265EB45058DF86FA00123FFF768B931
:10408000139C22462046129C2346214603F090FCB6
:10409000002840F08C82099B013326F020030D9309
:1040A00000F09180472B04D1099B002B08BF01230E
:1040B00009934BF480730693129BB3F1000A139B90
:1040C0000793BBBF534603F1004A00232D23662EFE
:1040D0000F9300F07F81462E00F0D4810D9B079A4C
:1040E000452B0CBF099B099D21A81EA908BF5D1C7B
:1040F000049003911DA8022102905346019500915E
:10410000089800F00DFC672E074640F0AF811BF0C9
:10411000010F00F013827C19169A0798179B5146DD
:1041200003F014FC002840F03281219BA34206D208
:1041300030215A1C21921970219B9C42F9D8DB1B1B
:1041400011930D9B472B00F0B980652E40F37682CA
:104150001D9B1093662E00F06281119B109A1946E8
:10416000914200F34F811BF0010F40F0098222EAD7
:10417000E27307930D9267260F9B002B40F0968009
:1041800009939DF86FA0FFF705B9DAF8580001F020
:10419000F1FF4FF0FF330B93FFF730BA069AD507C4
:1041A0007FF5B4AEA2E608F108089AE623AA0A99B8
:1041B0000898FEF7B3FF00287FF444AD1D9B259CB3
:1041C0000DF1C008A2E60623099372E74FF02D0A0D
:1041D0008DF86FA0FFF7C7BB23AA0A990898FEF7CE
:1041E0009DFF00287FF42EAD0DF1C00837E4249B1D
:1041F000B44AC8F80020013301340122072B25946A
:104200002493C8F8042000F3248108F1080829B990
:10421000119B1BB9069BDE077FF58FA9249B149881
:10422000159AC8F80020013302462244072B259234
:10423000C8F80400249300F3698108F108080029F4
:10424000C0F236811199C8F8007001338C18072B21
:1042500025942493C8F804107FF76DA9E0E40E9A22
:104260000B991368CD170846043229460E92C3E90C
:104270000001FEF7A9BFDA46FFF7C4BB23AA0A99DB
:104280000898FEF74BFF00287FF4DCAC259C0DF16D
:10429000C008FFF7FDBB38460994FEF791FE0E9566
:1042A0000D90CDF818B00346FFF736BA4FF02D0A3F
:1042B00000238DF86FA00993FFF76FB81D9B109333
:1042C0001A46033304DB099B19469142BFF645AFFA
:1042D000023E109B8DF87C60013B002B1D93BDBFFF
:1042E000109BC3F101032D222B22092B8DF87D2079
:1042F00040F33E810DF18B042046734D00E01046E3
:1043000085FB0312D917C1EBA20101EB8102A3EBDC
:1043100042023032092900F8012C0B4600F1FF322D
:10432000EDDC30330238D9B2844202F8011C40F28D
:1043300090810DF17E00134601E013F8011B00F897
:10434000011BA342F9D101339B1A0DF17E021344E4
:104350001FAA9B1A119A1993012A13440D9340F333
:1043600045810D9B149A13440D9323EAE37307933D
:104370000023109300E723AA0A990898FEF7CEFEBF
:1043800000287FF45FAC259C0DF1C008D1E42346E2
:10439000D5E6099B1097062B28BF06230997BA4636
:1043A00007930E95CDF818B00D93484FFEF7F2BF66
:1043B00023AA0A990898FEF7B1FE00287FF442ACC0
:1043C0001D9B119A259CD31A0DF1C008B6E5A24693
:1043D000FFF718BB21A81EA9099D049003911DA8F1
:1043E00003210290079A019553460091089800F026
:1043F00097FA074644193B78302B00F0CA801D9D80
:104400002C4489E6149A119B1344109A0D93002AA8
:1044100040F3E48023EAE37307936726ACE6002BBE
:1044200040F3FB80099A002A40F0CE801BF0010F78
:1044300040F0CA8007930D939EE6099B07930D9366
:1044400009900E95CDF818B010909DF86FA0FEF76A
:10445000A1BF23AA0A990898FEF760FE00287FF4FE
:10446000F1AB1D99259C0DF1C008D0E6472E7FF4D5
:1044700052AE1BF0010F00F0DA80462E07EB050468
:10448000B9D049E621A81EA9099C049003911DA852
:1044900003210290079A019453460091089800F076
:1044A0003FFA25460746E8E700230993FEF7C1BE19
:1044B0004E421031064D43DA1024DDF820A0DDF81D
:1044C00028B00CE0FC81400067666666F48140001D
:1044D0001082400008F10808103E102E30DD013334
:1044E0001032072B25922493C8F80050C8F80440D6
:1044F000F0DD23AA59465046FEF710FE00287FF44F
:10450000BAAE259A249B0DF1C008E5E723AA0A99C3
:104510000898FEF703FE00287FF494AB1D99259AB6
:10452000249B0DF1C0088AE6089823AA5146FEF79D
:10453000F5FD00283FF464AAFFF764BA219BFEE56D
:1045400001333244072B88E860002592249308F158
:1045500008087FF777AE23AA0A990898FEF7DEFDD0
:1045600000287FF46FAB259A249B0DF1C00869E603
:10457000303330228DF87F308DF87E2020ABE7E697
:10458000109B149A13440D9323EAE3730793672651
:10459000F2E5169A0798179B514603F0D7F90028C1
:1045A0007FF42DAFC5F101051D952C44B4E5129B98
:1045B000334F002BB6BF4FF02D0A9DF86FA08DF83A
:1045C0006FA0304BFFF7D1B9109B149A1344099A8E
:1045D0001A4422EAE2730D920793CDE5109B0D9ADF
:1045E000C3F101031A4413460D9213E71BF00103B4
:1045F00010937FF4B6AE0D9B23EAE3730793BBE5FC
:104600000E9C99F80160236843EAE37309932346FB
:10461000043381460E93FEF70ABE099B13B91BF0C3
:10462000010F02D0149B0133D1E7012302E7219B44
:10463000DB1B11930D9B472B3FF440AE1D9B10934A
:1046400047E68DF86F10FFF71DB88DF86F10FFF774
:1046500018B90DF17E037BE68DF86F10FFF766B891
:104660008DF86F10FFF7ACB98DF86F10FFF734B904
:104670008DF86F10FFF7B0B88DF86F10FFF745B9E0
:10468000C8814000C48140002DE9F0410C46ADF5E1
:104690008D6D8989666EE589199621F002010646BD
:1046A000E069ADF80C1017464FF48061626AADF80E
:1046B0000E5098461AAD0023079016A8099206934B
:1046C000009504950291059101F04EFD43463A464E
:1046D00069463046FEF72CFD051E07DB304669466D
:1046E00001F0E8F8002818BF4FF0FF35BDF80C3096
:1046F0005B0603D5A38943F04003A381169801F01C
:1047000035FD28460DF58D6DBDE8F08138B5304B8F
:104710001B6805460C4613B19A6B002A38D0B4F9D1
:104720000C2093B218070CD52069A8B113F0010230
:104730001ED0636900225B42A361A260F0B1002039
:1047400038BDD9063CD5580726D4206942F0080365
:10475000A3819BB20028E9D103F42072B2F5007F57
:10476000E4D02846214601F035FDA3892069DDE724
:10477000990758BF6269A2600028E0D1B4F90C30F3
:104780001A06DDD543F04003A3814FF0FF3038BD5A
:10479000184601F0F9F8C2E7216B51B104F140036A
:1047A000994204D0284601F015FAB4F90C200023F0
:1047B000236300232069636022F024022060C5E7A0
:1047C00042F0400209232B604FF0FF30A28138BD38
:1047D00018004020024B13B1024800F005B87047A2
:1047E00000000000F9594000002301461A4618460F
:1047F00002F0FEBE02690B69934200F38D802DE941
:10480000F04F03F1FF3801F1140700F1140B57F8D2
:1048100028205BF828304FEA880483B00132B3FBCC
:10482000F2F90BEB0403009407EB040A0193B9F1CE
:10483000000F39D000252E46BC46DE465CF8044BFE
:10484000DEF80030A2B209FB0255220C2C0C09FB49
:104850000242ADB2751B96B2C6EB134615FA83F34E
:1048600006EB23469BB243EA0643E2454FEA124574
:104870004EF8043B4FEA2646E0D2009B5BF803303B
:1048800093B9019C231F9B450CD254F8043C4BB9AF
:10489000A4F1080302E01A68043B1AB99B4508F129
:1048A000FF38F8D3C0F81080044602F06FFA0028F1
:1048B0002EDB09F101095D46002357F8041B286827
:1048C0008AB29A1A0B0C12FA80F2C3EB104303EB74
:1048D000224392B242EA0342BA4545F8042B4FEA1A
:1048E0002343EAD25BF828200BEB880382B91A1F16
:1048F00093450BD253F8042C42B9083B02E01A68E6
:10490000043B1AB99B4508F1FF38F8D3C4F810806E
:10491000484603B0BDE8F08F00207047000000005B
:104920002DE9F04F016C9BB00446279E92469B46B2
:1049300041B1426C4A60012393408B6002F04EF813
:1049400000232364BBF1000F5D4635DB0023336099
:104950009D4BAB4315D0504659460022002302F030
:10496000F5FF804600282DD0269A01231360289B4E
:10497000002B00F0BD809548186001381BB0BDE8E1
:10498000F08F269A42F20F731360BAF1000F0DD127
:10499000C5F3130555B9289B8D48002BEED000F1C7
:1049A0000803289A13601BB0BDE8F08F289B894844
:1049B000002BE3D0C31CF4E701232BF00045336048
:1049C000AB46C5E718AA19AB0192009352465B4665
:1049D000204602F07BFA2B0D814671D0CBF31302F7
:1049E00042F07F51189FCDF850805046A3F2FF3619
:1049F00041F440110022784BFDF722FB6CA3D3E970
:104A00000023FDF7D1FC6CA3D3E90023FDF71AFBCB
:104A1000CDE902013046FDF761FC69A3D3E900232B
:104A2000FDF7C2FC02460B46DDE90201FDF70AFB79
:104A3000CDE9040102F0D2FF002202900023DDE95B
:104A4000040102F08DFF002840F07381029D162DB5
:104A500000F25D81614B03EBC503D3E900015246CF
:104A60005B4602F09BFF002800F0C5816B1E02939D
:104A700000230E93BF1B7B1E069300F1548100237D
:104A80000893029B002BC0F24581069A0D931146B4
:104A90001944002306910C93249B092B2AD8052B3B
:104AA00040F35B86043B24930025249B023B032BAD
:104AB00000F24286DFE813F0D403C902DF03610489
:104AC000189F199E3E4406F23243202B40F38E81FC
:104AD000C3F1400306F212409D402AFA00F0284339
:104AE000FDF7ECFB0123013EA1F1F871149381E77E
:104AF0003B4843E7002161642046259101F048FFCF
:104B00004FF0FF330A93259A0F93012304902064FA
:104B100024920B93199B002BC0F2D980029A0E2A83
:104B200000F3D5802D4B03EBC203D3E90023CDE97D
:104B30000823259B002BC0F2BA83DDE908565046B6
:104B40002A4633465946FDF759FD02F047FF804695
:104B5000FDF7C4FB2A463346FDF726FC0B4602460A
:104B600059465046FDF76CFA049D08F130032B704E
:104B70000A9B012B06460F4605F1010568D000226D
:104B8000184BFDF711FC0022002306460F4602F0E9
:104B9000DDFE002840F08880CDF82C904FF0000A10
:104BA000DFF840B00C94DDE9088928E0AFF300801D
:104BB00061436F63A787D23FB3C8608B288AC63F23
:104BC000FB799F501344D33F0000F07FFD814000EC
:104BD000208240002C8240000000F83F68824000A4
:104BE000FC81400000002440FDF7DEFB0022002392
:104BF00006460F4602F0AAFE002840F0C183424656
:104C00004B4630463946FDF7F9FC02F0E7FE044614
:104C1000FDF764FB42464B46FDF7C6FB02460B46DA
:104C200030463946FDF70CFA04F1300E049E05F8C3
:104C300001EBA5EB060E0A9EB645CDE906015246EC
:104C40005B46D1D1A046DDF82C900C9C06460F4661
:104C500032463B4630463946FDF7F4F906460F46E4
:104C600002460B46DDE9080102F07AFE48B93246F9
:104C70003B46DDE9080102F069FEA8B118F0010F1A
:104C800012D015F8018C049A6B1E04E09A4200F0D1
:104C9000018413F8018DB8F1390F03F10105F5D046
:104CA00008F1010883F800804946204601F096FE8D
:104CB0000022029B2A70269A01331360289B002B46
:104CC00000F09E8304981D601BB0BDE8F08F0B9A26
:104CD000002A3ED0249A012A40F311830A9B0C9AA1
:104CE0005F1EBA42C0F28F83D71B0A9B002BC0F213
:104CF0008B84089D0A9B089A1A440892069A0121FF
:104D00001A442046069201F003FF064624E00123E0
:104D10000E93AFE6089A029BD21A5B420C930023D3
:104D200008920D93B8E6C7F1010308930023069398
:104D3000A7E6029D2846FDF7D1FA02460B46DDE9BB
:104D4000040102F003FE00287FF480AE6B1E029384
:104D50007CE60C9F089D0B9E002D0CDD069900291A
:104D60000B4608DDA942089AA8BF2B46D21AED1AB5
:104D7000CB1A089206930C9BD3B10B9B002B00F02F
:104D8000B782002F10DD31463A46204601F05CFF25
:104D90004A4601460646204601F0C4FE4946804682
:104DA000204601F01BFEC1460C9BDA1B40F0A1829D
:104DB0000121204601F0ACFE0D9B002B80461CDD3E
:104DC00001461A46204601F03FFF249B012B8046F6
:104DD00040F3548200230C93D8F8103008EB83037F
:104DE000186901F045FEC0F1200010E0C3F1200574
:104DF0000AFA05F074E60E903CE6249B012B40F382
:104E0000878200230C930D9B0120002BE4D1069A8E
:104E1000104410F01F0000F0A180C0F12003042B0B
:104E200040F39E84089BC0F11C0003440893134682
:104E3000034405440693089B002B05DD49461A46AA
:104E4000204601F051FF8146069B002B05DD4146BF
:104E50001A46204601F048FF80460E9B002B40F08A
:104E600086800A9B002B40F366820B9B002B00F090
:104E70009880002D05DD31462A46204601F034FF9A
:104E800006460C9B002B40F0378306960A9B049A3B
:104E9000DDF818B0013BD3180B930AF001030C9313
:104EA0001746C24651464846FFF7A4FC3146054620
:104EB000484601F06BFF5A460A905146204601F0E1
:104EC00081FFC268804605F13003002A40F02B8242
:104ED00001464846089301F059FF41460690204696
:104EE00001F07CFD069A089B32B9249921B90C9AED
:104EF000002A00F0EF83249A0A990029C0F29F82C9
:104F000005D1249919B90C99002900F09882002A3A
:104F100000F306830B9A3B7007F101089742454660
:104F200000F00C83494600230A22204601F060FD70
:104F30005E45814631464FF000034FF00A0220469D
:104F400000F0EB8101F054FD5946064600230A2289
:104F5000204601F04DFD47468346A3E71C20089BF1
:104F600003440893069B03440544069363E74146C4
:104F7000484601F00BFF0028BFF673AF029F494679
:104F800000230A222046013F029701F031FD0B9BCE
:104F90008146002B40F0B6830F9B002B40F3BF836C
:104FA0000A93DDF810B00A9F5D4602E001F020FD93
:104FB000814641464846FFF71DFC00F1300A05F8DE
:104FC00001ABA5EB0B03BB424FF00A024FF000030D
:104FD00049462046EADB049B0A9A012AACBF9B188B
:104FE00001331D464FF0000B49460122204601F0D7
:104FF0007BFE4146814601F0C9FE002840F33D8218
:1050000015F8012C04996B1E04E08B4200F0AE8170
:1050100013F8012D392A03F10105F6D001321A7077
:105020004146204601F0DAFC002E3FF43DAEBBF1D4
:10503000000F05D0B34503D05946204601F0CEFC01
:105040003146204601F0CAFC2EE600230B93029B5A
:10505000259A13440F930133012B1F461E460A93D2
:10506000B8BF01270021172F61640AD90122042348
:105070005B0003F114008742114602F10102F7D2EE
:105080006164204601F084FC0E2E049020643FF6FB
:1050900041AD002D3FF43EAD02990029CDE910ABA2
:1050A00040F30282B84B01F00F020D1103EBC20373
:1050B000E906D3E9006740F1AE81B44B504659464A
:1050C000D3E90823FDF79AFACDE9120105F00F059F
:1050D0004FF0030A8DB1DFF8B482EA0709D53046F4
:1050E0003946D8E90023FDF75FF90AF1010A0646BF
:1050F0000F466D1008F10808EFD13B463246DDE956
:105100001201FDF77BFA074688460E9B43B1002249
:105110009F4B3846414602F023FC002840F086822F
:105120005046FDF7DBF83A464346FDF73DF9994B0B
:105130000022FCF787FF0A9B0546A1F15076002B61
:1051400000F03E81029B15930A9B12930B9B002B50
:1051500000F0FA81129A8C4B8F4903EBC20353E99A
:1051600002230020FDF74AFA2A463346FCF768FF7F
:1051700082468B463846414602F030FC0546FDF734
:10518000ADF802460B4638464146FCF759FF30352C
:105190005FFA85F8049D06460F4685F800800246B2
:1051A0000B4650465946013502F0F8FB002854D111
:1051B00032463B4600207649FCF742FF02460B464A
:1051C0005046594602F0EAFB002840F07082129ADD
:1051D000012A00F01181129B049ACDF848901344E3
:1051E00099460DE000206A49FCF72AFF52465B46CB
:1051F00002F0B6FB002840F058824D4500F0FA80DE
:10520000504659460022654BFDF7CEF80022634B0D
:1052100082468B4630463946FDF7C6F80F460646AD
:1052200002F0DCFB8046FDF759F802460B4630469B
:105230003946FCF705FF08F130085FFA88F8524656
:105240005B4605F8018B06460F4602F089FB3246A5
:105250003B460028C6D0DDF84890159B029323E515
:1052600000230B93259B002B40F3DC801F461E463A
:105270000F930A93F6E601230B93F3E7BAF1000FBD
:105280007FF4A8ADCBF31303002B7FF4BAAD2BF062
:1052900000473F0D3F05002F00F00D82089B0133B2
:1052A0000893069B0133069301230C93ABE50A9BFD
:1052B000002B3FF742AC40F021820022384BDDE961
:1052C0000801FDF771F852465B4602F05DFBDDF820
:1052D00028804646002841D0259B049DDB4302934D
:1052E0004146204601F07AFB002E3FF4DDACA7E6F4
:1052F0000C9A4946204601F0A7FC814658E5149ACD
:10530000002A00F0878103F233430C9F089DF2E4EA
:10531000BAF1000F7FF475ADB4E701F069FB4746C1
:1053200006468346BEE501462046069301F056FB3D
:105330000122069BE0E5249B022B7FF796AD0A9B9A
:10534000002BC9D141460522204601F051FB014600
:105350008046484601F01AFD0028BDDD029A0499F6
:105360003123013202920B704D1CB9E7029A0132CF
:105370000292049A3123137052E601230B9366E6DE
:10538000DDF82C900C9C8FE4688240004082400045
:105390000000F03F00001C400000E03F00002440FF
:1053A000000014405046FCF799FF3A464346FCF78C
:1053B000FBFF0022C14BFCF745FE0546A1F15076EC
:1053C00041460022BE4B3846FCF73AFE2A46334699
:1053D00082468B4602F0E2FA8046002840F01081B7
:1053E0002A4606F100435046594602F0B9FA18B170
:1053F000464671E7DDF84890DDE910ABFFF78ABB60
:105400000498FFF7BBBA0C9B0D9A0C97FB1A1A4431
:105410000D92002769E4DDE910234FF0020ACDE97F
:10542000122357E60021012361642046259301F0F1
:10543000AFFA259B049020640A930F9329E6002A73
:10544000D046CDF818B09A4611DD494601222046D3
:1054500001F04AFC4146814601F098FC002840F3E7
:105460004681BAF1390F00F0068105F1310AB346E1
:1054700087F800A07D1C069ED2E504D11AF0010F2A
:1054800001D0BDE5154615F8013C302B05F1FF3282
:10549000F8D0C5E5049930220A70029A15F8018CFB
:1054A00001320292FFF7FCBB00F0BB80029B5D4221
:1054B000844B05F00F0203EBC203D3E90023DDE9BF
:1054C0001001FCF771FF2D110746884600F02C8172
:1054D0007D4E4FF0020AEB0709D538464146D6E922
:1054E0000023FCF761FF0AF1010A074688466D10A8
:1054F00006F10806EFD108E67168204601F048FA87
:10550000336902339A00054606F10C010C30FDF7B1
:105510000DFB29460122204601F0E6FB0690B5E48A
:10552000392BCDF818B0D04600F0A58003F1010A60
:10553000B34687F800A07D1C069E71E55A46D0460A
:10554000B3469A4616464FE5129B5E4901EBC301EE
:105550002A46334651E90201FCF726FFCDE9160140
:105560003846414602F03AFA0546FCF7B7FE0B46CC
:10557000024641463846FCF763FD129B0F460499EC
:105580003035012B0D70064601F1010526D0129B26
:10559000049ADFF83CB1CDF8489013444FF0000A6C
:1055A000994652465B4630463946FCF7FDFE0F46AB
:1055B000064602F013FA8046FCF790FE08F1300828
:1055C00002460B4630463946FCF73AFD05F8018B9A
:1055D0004D4506460F46E4D1DDF848903B4B00228E
:1055E000DDE91601FCF72EFD32463B4602F0B8F924
:1055F000002846D0159B029315F8018CFFF743BB9A
:105600004FF000084646A9E6089B0A9A9D1A002317
:10561000FFF771BB189B0C9F089DC3F13603FFF782
:105620006ABBDDE910784FF0020A6EE50A9B002B99
:105630003FF4B8AE0F9B002B7FF7DEAE0022244B69
:1056400038464146FCF7B0FE074688460AF101009D
:10565000FCF744FE3A464346FCF7A6FE0022174BF1
:10566000FCF7F0FC029A0F9B1293013A0546A1F158
:10567000507615926AE53922B3463A70069E7D1C33
:10568000C0E4DDE9162300201049FCF7D9FC3246BE
:105690003B4602F083F908B9AEE6154615F8013C21
:1056A000302B05F1FF32F8D0D7E5DDF84890159B97
:1056B0000293FFF7E8BA0C97FFF7A5BB00001C4068
:1056C0000000144068824000408240000000E03F3B
:1056D00000002440392BCDF818B0D046DDF828B0B2
:1056E0009A46C8D0BBF1000F3FF7BFAEBFE67FF4CC
:1056F000BEAE1AF0010F3FF4BAAEB2E64FF00008AA
:105700004646E9E5314600230A22204601F070F9B9
:105710000F9B002B06460ADD0A93FFF7AABB249BCA
:10572000022B23DC0F9B3BE44FF0020AEDE4249BA9
:10573000022B1BDC0F9BEFE7002565642946204602
:1057400001F026F94FF0FF330A930F9301230490E1
:10575000259520640B93FFF7DDB90125FFF7A5B967
:105760003FF469ABC0F13C00FFF7F9BB0F9B0A9314
:10577000E5E500BFB1F90C309AB22DE9F0410D46D4
:10578000110780463AD46A6843F40063002AAB816B
:105790006FDDAC6A002C49D000229BB2D8F80060C3
:1057A000C8F8002013F4805267D02A6D5F0705D532
:1057B00069682B6B521A0BB1EB6BD21A0023E969A3
:1057C0004046A047441C3CD0B5F90C302A692A60F9
:1057D00023F400630022AB81DB046A6047D4296BA9
:1057E000C8F8006011B305F14003994202D0404669
:1057F00000F0F0F900202863BDE8F0812E69AEB119
:105800002C682E6091070CBF6B690023A41BAB6052
:105810000AE0234632466F6AE9694046B8470028E5
:10582000A4EB0004064404DD002CF2DC0020BDE8FB
:10583000F081AB8943F04003AB814FF0FF30BDE80E
:10584000F081D8F800401D2CF3D8194BE340DB431E
:1058500013F00103EDD1B5F90C206B6022F4006365
:105860002969AB81DA042960B9D5002CB7D1286544
:10587000B5E7EA6B002A8CDCD8E70123E9694046EA
:10588000A047431C024602D0AB89AC6A8EE7D8F829
:105890000030002BF8D01D2B01D0162B02D1C8F8F8
:1058A0000060C3E7AB8943F04003AB81BDE8F08102
:1058B0000100402038B50D46044608B1836BBBB1EA
:1058C000B5F90C0088B16B6EDB0701D4810517D5E3
:1058D00020462946FFF74EFF6B6EDA07044602D4D6
:1058E000AB899B0507D5204638BD0446204638BD08
:1058F00000F04AF8E4E7A86D00F03CFC204638BD13
:10590000A86D00F035FCE3E720B1054B01461868AF
:10591000FFF7D0BF034B0449186800F0DFBB00BF9E
:1059200018004020B8814000B5584000014900F0FF
:10593000D5BB00BF3977400010B5002304468181F4
:10594000C281036043608360436603614361836196
:10595000194608225C30FDF783F907480749084AD1
:10596000084B2062E4616162A262E36204F15800C4
:10597000BDE8104000F0F8BB1D74400041744000C9
:105980007D7440009D74400010B50446124800F03C
:10599000EFFBA26BD2B904F53B731048C4F8E832B0
:1059A0000321C4F8E022E063C4F8E4126068042133
:1059B000FFF7C2FF01220921A068FFF7BDFF022205
:1059C0001221E068FFF7B8FF0123A3630248BDE896
:1059D000104000F0CFBB00BF741640202D5940008E
:1059E000014800F0C5BB00BF88164020014800F008
:1059F000C1BB00BF8816402038B50A4C0A4D641B55
:105A0000A4100AD004F18043013B05EB8305013C5F
:105A100055F804399847002CF9D1BDE8384002F018
:105A200019BD00BF64844000608440002DE9F04748
:105A300082B080468946144600F07AFB012836D0B1
:105A40004A4604F15C0301A9404601F083FD421C73
:105A5000064625D0A8B39DF804E000250DF1040A00
:105A600009E023685A1C226083F800E00135B54242
:105A700027D215F80AE0A368013B002BA360F0DAF7
:105A8000A769BB4271462246404602DBBEF10A0FBF
:105A9000E7D101F007FD431CE8D102B0BDE8F08773
:105AA000A38943F04003A38102B0BDE8F08709F168
:105AB000FF33FE2BC4D85FFA89FE06468DF804E05A
:105AC000CBE7484602B0BDE8F08700BF30B5536E63
:105AD00013F0010FB2F90C30144683B005469AB2A8
