S00F000053414D443231302E737265635D
S1130000A8140020310100002D0100002D01000082
S113001000000000000000000000000000000000DC
S11300200000000000000000000000002D0100009E
S113003000000000000000002D0100002D01000060
S11300402D0100002D0100002D0100002D010000F4
S11300502D0100002D0100002D0100000000000012
S11300602D0100002D0100002D0100002D010000D4
S11300702D010000712100002D0100002D01000060
S11300802D0100002D010000E92600002D010000D3
S11300902D0100002D0100002D0100008518000035
S11300A02D0100002D0100000000000000000000F0
S11300B02D0100002D01000010B5064C2378002B03
S11300C007D1054B002B02D0044800E000BF0123F8
S11300D0237010BDD0010020000000000880000043
S11300E0084B10B5002B03D00749084800E000BFB7
S11300F007480368002B00D110BD064B002BFBD032
S11301009847F9E700000000D401002008800000AF
S1130110088000000000000010B5024B9847024B15
S1130120984710BDC906000025300000FEE7000016
S113013010B5264A264B9A4211D01A00254B9A42F2
S11301400DD2254A03339B1A9B0801339B000022DE
S11301501F481E498C58845004329A42FAD11F4ACF
S11301601F4B9A420AD2D3431D495B1803218B4388
S113017004339B18002102C29342FCD1194AFF2187
S1130180194B8B439360FD3990235B00174AD15080
S1130190174B9A7B2E318A4320210A439A739A7B08
S11301A00C218A4308210A439A739A7B03218A43C8
S11301B002210A439A730F4A536880210B43536008
S11301C00D4B98470D4B9847FEE7C046088000004A
S11301D000000020D001002004000020D0010020F5
S11301E0A804002000ED00E00000000000700041C1
S11301F0004800410040004145300000092700004C
S1130200F0B585B02E4A116A80235B020B4313625A
S11302102C4A2D4B5A802D4D2D4E002302932D4BED
S113022001930124009400232A002B4930002B4F12
S1130230B8472A1D102300213000294DA847C023A8
S1130240DB059C46042362465360264B264A9A6289
S1130250C0273F069F6242215A5CA2430120024309
S1130260D2B25A5431269A5D0F25AA430243D2B220
S11302709A55082261464A601C4A9A629F62432248
S1130280995CA1430143C9B299549A5D0F210A4074
S113029001310A439A55402261464A60144A9A62DF
S11302A09F624622995CA1430143C9B29954332108
S11302B05A5CAA430243D2B25A5405B0F0BDC046B8
S11302C0000400401E400000000C0040EC0100202F
S11302D0CC030020F8030020004000422D08000059
S11302E0D50800000044004104000040080000401C
S11302F04000004070B5124B5020195C0422914319
S11303001954195C0125A94301242143C9B2195484
S11303101838195C0F26B1430D3E3143195451214D
S11303205E5C96435E545A5CAA432243D2B25A544A
S11303301A5C42390A4011310A431A5470BDC0464E
S113034000440041054A136A08210B431362044B1D
S1130350044A5A80044A5A807047C0460004004048
S1130360000C0040154000001343000010B5044B7E
S1130370984704490448054B9847054B984710BDD6
S113038045030000000C004268040020410C0000FA
S1130390F502000070B5124B4820195C0422914309
S11303A01954195C0125A94301242143C9B21954E4
S11303B01438195C0F26B1430C3E314319544921BA
S11303C05E5C96435E545A5CAA432243D2B25A54AA
S11303D01A5C3A390A4021310A431A5470BDC046A6
S11303E000440041054A136A10210B431362044B75
S11303F0044A5A80044A5A807047C04600040040A8
S1130400000C0040164000001343000010B5044BDC
S1130410984704490448054B9847054B984710BD35
S1130420E503000000100042AC030020410C000072
S11304309503000070B5124B5620195C04229143B9
S11304401954195C0125A94301242143C9B2195443
S11304501B38195C0F26B1430D3E31431954572103
S11304605E5C96435E545A5CAA432243D2B25A5409
S11304701A5C48390A4011310A431A5470BDC04607
S113048000440041054A136A20210B431362044BC4
S1130490044A5A80044A5A807047C0460004004007
S11304A0000C0040174000001343000010B5044B3B
S11304B0984704490448054B9847054B984710BD95
S11304C0850400000014004280030020410C000059
S11304D035040000F0B5DE4657464E464546E0B5C5
S11304E0C020C00580235B00942283500C3A8350C3
S11304F0374B203237499950C02109069950C826F4
S1130500995D0125A94301242143C9B29955143E9B
S1130510995D0F27B846B9430C3F3943C9B2995581
S113052084218B467D31FF315F46C1512A49995060
S11305302A498A4699504537D95D0334A146A143D7
S1130540D955D95DA943033C2143C9B2D955995D15
S11305500E34A446214030273943C9B2995580212D
S1130560C9005C4601511E49995051469950CA210F
S11305705E5C4C46A6435E545E5CAE43033C26433D
S1130580F6B25E54B526995D4446A1430C3C214322
S1130590C9B2995580210901913401510C3C015192
S11305A010499950C02109069950CB215A5CAA439D
S11305B0873C1443E4B25C549A5D61460A40174395
S11305C0FFB29F553CBC90469946A246AB46F0BD4F
S11305D0004400410001004000020240000002C04B
S11305E00004024000080040044A136A40210B43FF
S11305F01362034A034B5A807047C046000400400C
S113060018400000000C004010B5064B984720230A
S1130610054A143205490648064CA047064B98473C
S113062010BDC046E9050000EC010020001800429E
S113063010040020890F0000D504000030B50E4BD3
S1130640C022995C0125A94301242143C9B29954CC
S1130650B020195CB13A91430C3A11431954C121A9
S11306605A5CAA432243D2B25A541A5CB2390A40A1
S113067021310A431A5430BD00440041044A136A2C
S113068080210B431362034A034B5A807047C046D0
S11306900004004019400000000C004010B5054B58
S11306A09847002204490548054B9847054B98474D
S11306B010BDC0467D060000001C0042A0030020BF
S11306C0491400003D060000F0B5C64600B5274BAE
S11306D09847C021C90598239846943B42468B50BD
S11306E088254B51224B103222489850C0242406AE
S11306F09C50C22084461E5CC13886436746DE5542
S113070008264746CE514E511B4E9E509C502B37C7
S1130710DE5D8643DE5510262F3FCE514E511749DC
S113072099509C50C4215A5C82435A54144B9847A4
S1130730144B9847144B9847144B9847144B9847BD
S1130740144B9847144A116A80231B010B4313620C
S1130750124A134B5A80134B98470200124913480C
S1130760134B984704BC9046F0BDC04615190000D1
S11307700044004104000040080000401000004014
S1130780010200006D0300000D040000AD04000030
S1130790090600009D060000000400401B40000004
S11307A0000C0040C3260000002C004288040020F6
S11307B03912000010B58369002B00D0984710BD92
S11307C010B5C369002B00D0984710BDF0B583B0B5
S11307D005000E00036A5B5C5C00E418E400836AB5
S11307E09C466444271D01926B46197938000D4BD1
S11307F0984728000C4B9847012807D9019B190AF0
S11308003800084B9847A38A0133A382A38A013393
S1130810A3822368002B02D031002800984703B03C
S1130820F0BDC046CD150000E1170000F0B5D64676
S113083000B582B00500019116001C0008AB1F78BA
S1130840002835D0002935D0002A35D00020002FCB
S113085002D00998431E98413F221849184B9A46E2
S11308609847621CFB0FD017BA425841C0B24022CD
S11308701249D0470023FF22F2540133DBB29C42D9
S1130880FAD22E622423EC540133EF54099BAB6259
S1130890019928000B4B9847002805D10A4BAB60FF
S11308A00A4B2B600A4B6B6002B004BC9246F0BD4D
S11308B00020D1E70020CFE70020CDE75C790000DD
S11308C0C114000075170000CD070000B507000033
S11308D0C1070000F0B583B007000C00009201933B
S11308E000281BD0002A1BD01800431E9841234E19
S11308F066223100224DA8472423FB5C0020A3423A
S11309004041C0B267223100A847396A0B5DFF2B12
S11309102AD1DB3BF85C0026002307E00020E6E751
S11309200020E4E70133DBB2834205D8CA5CFF2A26
S1130930F8D00136F6B2F5E72523FB5CB34216D3B3
S113094073009B19DD00BB6A58190430019A0099A1
S11309500C4B984700280DD13B6A1E55BB6A5B19A6
S113096000229A8203B0F0BD0D204042FAE71C2019
S11309704042F7E70D204042F4E7C0465C790000AE
S1130980C114000031150000F8B506000C000B4D31
S1130990431E9841C0B283222900094FB84724233B
S11309A0F35C0020A3424041C0B284222900B8472E
S11309B021003000034B98470020F8BD5C7900000B
S11309C0C1140000D5170000F0B583B007000191F1
S11309D015001E00431E9841C0B29C221649174CB4
S11309E0A0472423FB5C0020019A93424041C0B2FB
S11309F09D221149A047012D19D0002D04D0022DAC
S1130A0017D00D20404210E03B6A019A9A5C5300D3
S1130A109B18DB00BA6A9E50731E9E41F3B22A00F3
S1130A2001993800064CA047002003B0F0BDBE6118
S1130A30F2E7FE61F0E7C0465C790000C1140000F3
S1130A4045180000F0B5CE46474680B585B0050090
S1130A500C0017009846002852D0002A52D01800E3
S1130A60431E9841BC222A492A4EB0472423EB5CFA
S1130A700020A3424041C0B2BD222549B04728000E
S1130A80254B984701004046244B9847484248412B
S1130A90C0B2BF221E49B0472B6A1A5D53009B188F
S1130AA0DB00AA6A9146994403A81D4B98474B461C
S1130AB00433019318001B4B9847040003A81A4BF6
S1130AC09847002C20D04346002B1FD03D00013C0A
S1130AD03F190024154E0134A4B229000198B047EF
S1130AE0BD4202D00135A045F5D14B469B8A1B1B64
S1130AF04A469382200005B00CBC90469946F0BD4E
S1130B000020AFE70020ADE70024EEE70024ECE787
S1130B105C790000C1140000E1170000495D000089
S1130B20A50B00000D160000B30B00008515000096
S1130B3010B50400431E9841C0B2D6220349044BA9
S1130B4098472000034B9847002010BD5C790000B3
S1130B50C1140000F9170000F0B583B0060000913D
S1130B6001921C000C4D431E9841C0B2F52229008D
S1130B700A4FB8472423F35C0020A3424041C0B28B
S1130B80F6222900B8472300019A00993000044C4A
S1130B90A047002003B0F0BD5C790000C114000040
S1130BA00D180000EFF31083036072B6BFF35F8F7C
S1130BB07047BFF35F8F036883F3108870470000AA
S1130BC010B5044B1C68044B984701002000034BEC
S1130BD0984710BD20020020ED1800000D190000F8
S1130BE010B584B0140001AB1438828B1A800294BF
S1130BF0054A5A8003911900044B9847002800D1F4
S1130C00200004B010BDC0460080FFFF391C000066
S1130C1010B584B0140001AB1438828B1A8002948E
S1130C20054A5A8003911900044B9847002800D1C3
S1130C30200004B010BDC0460180FFFF391C000035
S1130C4070B504000D00431E9841C0B25E220749EE
S1130C50074B984729002000064B9847002803D1EA
S1130C60054BA361054B636170BDC04678790000F4
S1130C70C1140000091C0000110C0000E10B00006D
S1130C808905890D8023DB001A400A438283100002
S1130C907047000010B584B0848B01AB1C80012A1E
S1130CA00AD00323029301AB054A5A800391190029
S1130CB0044B984704B010BD02230293F3E7C046E7
S1130CC00080FFFF391C000070B586B004001600D8
S1130CD01D006B46D971073303A9828B0A80012258
S1130CE04A6000224A808B60074B9847002801D055
S1130CF006B070BD03A9054B4B808E604D6020008B
S1130D00014B9847F4E7C046391C00000180FFFFFF
S1130D1070B506000C00150000280DD00800431E15
S1130D209841C0B234220549054B984733682A00DC
S1130D3021003000984770BD0020F3E7947900004B
S1130D40C114000070B506000C00150000280DD079
S1130D500800431E9841C0B23D220549054B9847FF
S1130D6073682A0021003000984770BD0020F3E723
S1130D7094790000C114000010B50438C36A984780
S1130D8010BD7047F0B583B004000D001600431E7B
S1130D909841C0B288221749174B98470020002E6B
S1130DA001D103B0F0BD01A8144B9847552223008C
S1130DB0243B9B5CDB0716D42700243F5522BB5CF5
S1130DC001210B43BB5401A80D4B9847FD6300223E
S1130DD04223FA52023BFE52200020380121094BE3
S1130DE098470020DDE701A8054B984704204042BE
S1130DF0D7E7C046A8790000C1140000A50B000085
S1130E00B30B0000AD230000F0B5C64600B584B0B6
S1130E1007000C001600431E9841C0B2B6222049B8
S1130E20204B98470020002E03D104B004BC904608
S1130E30F0BD20239C46BC446346019360461A4B94
S1130E40984703000020002BEFD03A00243A127A8E
S1130E50022A01D17600B6B29E4200D91E00002CAF
S1130E6012D0A31998462100002E06D00F4D4C1C19
S1130E700198A84721004445F9D1243F3B7A7008E2
S1130E80022BD2D03000D0E7002EF6D00024074D3C
S1130E9002ABD91D0198A8470134A642F8D1ECE76A
S1130EA0A8790000C11400000D160000851500008B
S1130EB070B504000D000021094B98470021200063
S1130EC0084B984700212000074B9847201F5522C4
S1130ED0835C01218B438354836B2900984770BD45
S1130EE0AD230000FD23000049240000F8B50400F0
S1130EF0071F0A4B9847050026004036C1B2300050
S1130F00074B98472379012B04D92904090E300093
S1130F10034B9847236B38009847F8BD8924000099
S1130F20CD15000070B504000379012B0FD9021F01
S1130F30806B4221535A5D1C55525B00195A2000A4
S1130F400F4B9847E28FA38F9A420BD270BD031FB9
S1130F50806B42215A5A551C5D52815C2000084B1B
S1130F609847EFE700212000064B9847201F5522A1
S1130F70835C01218B438354036B9847E6E7C046A7
S1130F8055240000AD230000F8B504000D00160040
S1130F901F0000283CD000293CD0002A3CD0180077
S1130FA0431E9841FB221D491D4B984720004430A5
S1130FB03A0031001B4B9847002828DB261D2900E6
S1130FC03000194B9847002821DB184A00213000D3
S1130FD0174DA847174A01213000A847164A022195
S1130FE03000A847154A03213000A8475522A35CC6
S1130FF002218B4301398B43A354114BA363E36256
S1131000236363630F4BA3620F4B63620020F8BD3D
S11310100020C7E70020C5E70020C3E7A879000047
S1131020C11400003115000035230000250F000015
S1131030F5240000ED0E0000790D0000B10E000053
S1131040830D0000090E0000850D000070B504003A
S1131050431E9841C0B2922252000E490E4B98474B
S11310605523E35C9B0700D570BD251D28000B4B61
S113107098470028F8D15522A35C02210B43A354BE
S113108001212800064B984701212800054B984769
S1131090EAE7C046A8790000C1140000412300001B
S11310A0FD23000049240000F8B506000D001400DB
S11310B0171E11D03000431E9841C0B2BA2252000C
S11310C00E490F4B9847012D0AD0002D06D0022D52
S11310D008D0032D08D0F8BD0A4FEBE73763FAE7D1
S11310E07763F8E7F762F6E7B763621E9441E2B20A
S11310F0301D0321044B9847EDE7C046A879000052
S1131100C1140000830D00003D25000070B50400EB
S11311100D0000280CD00800431E9841C0B2CF2215
S113112052000449044B984724342C60002070BDBD
S11311300020F4E7A8790000C1140000F8B5CE46F9
S1131140474680B5814603689C46002B05D08E68CF
S11311501C0000250127BF1A0DE0124B984718E028
S1131160FB18A06880464344B3420CD22368250090
S1131170002B0BD01C0063689342F1D8A068804612
S113118043449B1AF0E7A44507D02C002000064BEB
S113119098470CBC90469946F8BD4846014B984781
S11311A0F7E7C046ED14000019150000F0B5C64677
S11311B000B582B0070044690369013398460361AE
S11311C0037EDB0711D4037E9B070ED4002C10D0C2
S11311D0434662689B1AA26893420AD314239C462E
S11311E0844463460193124E14E03B7E022213436F
S11311F03B7602B004BC9046F0BD7D69E3682000F4
S11312009847002DF5D02C0043466A689B1AAA68BB
S11312109342EED30198B047237C012BEDD1434692
S11312206360424621000198024B9847E5E7C046B7
S1131230211500003D11000070B505000C000028C8
S113124011D00800431E9841C0B23B220749084B05
S1131250984721002800074B984700232B61064B31
S11312602B60002070BD0020EFE7C046C879000065
S1131270C114000099250000AD11000010B5040050
S1131280431E9841C0B253220749084B9847200097
S1131290074B9847002804D12000064B98470020AC
S11312A010BD11204042FBE7C8790000C1140000C2
S11312B0B9260000AD26000070B582B004000D0010
S11312C0002824D00800431E9841C0B27A221E4947
S11312D01E4B9847237E012213432376260014369F
S11312E0290030001A4B9847002812D123696B60FB
S11312F0226929003000174B9847237E012293432B
S11313002376237E00209B070FD402B070BD0020FB
S1131310DCE7237E0122934323767E320A490020B0
S11313200A4B984712204042EFE701A80A4B98471E
S1131330237E0222934323762000084B984701A87A
S1131340074B98470020E0E7C8790000C11400006B
S1131350C91400003D110000A50B0000C9260000BF
S1131360B30B0000F8B5CE46474680B504000F0025
S11313709046002826D0002926D01000431E98410C
S1131380F1221249124B98470834124D2000A84705
S11313900028FBD00026104B99460E4DB95D200065
S11313A0C8472000A8470028FBD001364645F5D39E
S11313B00A4D2000A8470028FBD030000CBC904602
S11313C09946F8BD0020DBE70020D9E7E07900006A
S11313D0C1140000E91B0000D91B0000F31B00002E
S11313E0F8B5CE46474680B504000F009046002865
S11313F01DD000291DD01000431E984186225200A2
S11314000D490E4B9847002608340D4D0D4B994657
S11314102000A8470028FBD02000C847B855013653
S11314204645F5D330000CBC90469946F8BD0020E3
S1131430E4E70020E2E7C046E0790000C1140000C0
S1131440FD1B0000E11B000070B505000C00002826
S113145013D00800431E9841C0B234220849094BF6
S11314609847280008302100074B9847002803D1EB
S1131470064B6B60064B2B6070BD0020EDE7C04649
S1131480E0790000C1140000991B0000E113000082
S11314906513000010B50400431E9841C0B25322E6
S11314A00449054B984720000830044B9847002016
S11314B010BDC046E0790000C1140000C51B000047
S11314C0002800D100BE70470368002B0AD08B426D
S11314D00AD01B68002B03D09942FAD1012000E006
S11314E0002070470020FCE70120FAE770B50400F3
S11314F00D00064B984701235840C0B239220449D5
S1131500044B984723682B60256070BDC914000004
S1131510FC790000C114000003680B60016070478F
S11315200368002B01D01A6802601800704700009D
S113153070B504000E00150000280BD0002918D047
S11315400120002A07D128220C4900200C4B98477F
S11315506B1E07E0002028220849094B98476B1EA0
S11315602B4208D163600023A360E360266000205F
S113157070BD0020EFE70D204042F9E71C7A00001F
S1131580C114000070B504000D00002815D0080037
S1131590431E9841C0B240220A490B4B9847A368A6
S11315A0E2689A420BD0626813402268D35C2B70C5
S11315B0A3680133A360002070BD0020EBE70A207C
S11315C04042F9E71C7A0000C114000070B5040021
S11315D00D00431E9841C0B251220A490A4B984754
S11315E06368E26813402268D554E3686168A268BE
S11315F09A1A8A4201D9591AA1600133E360002082
S113160070BDC0461C7A0000C114000010B504006F
S1131610431E9841C0B267220349044B9847E068CF
S1131620A368C01A10BDC0461C7A0000C114000093
S11316300300064A1268002A04D0044A1068C3183A
S1131640136070470249014A1160F6E72402002042
S1131650A814002001204042704780239B014B6066
S11316600020704701207047002070470020704719
S113167070B504000D00394BC01842424241D0B24B
S113168094223749374B9847374B1A685201E02365
S1131690DB001A40354B596849011B68DB0E0B43CC
S11316A0FF210B401A43637EDB09FCD123789B079F
S11316B004D500232370637EDB09FCD1012323704E
S11316C0637EDB09FCD12285EA00521B9200284B81
S11316D09B189A786270DA78A2701A79E2701A7C90
S11316E02275DA8AA2841A8BE284997E2A22A15472
S11316F0DB88A380637EDB09FCD1EB005B1B9B00D2
S11317001B4AD318DB682361637EDB09FCD1EB0041
S11317105B1B9B00164AD3181B7A2372637EDB097A
S1131720FCD1EB005B1B9B00114AD3185B8AA3839B
S1131730637EDB09FCD1EB005B1B9B000C4AD318D6
S11317409B8A2384637EDB09FCD1EB005D1BAD0027
S1131750074B5D196B782370002070BD00C0FFBD7E
S11317605C7A0000C11400002460800020608000C6
S1131770407A000070B505000C00431E9841C0B2C9
S1131780D3220E490E4B984720000E4B9847010078
S113179020000D4B984700280FD16C610B4B1D6046
S11317A00B4B8022120480215A50BFF34F8FBFF39A
S11317B06F8F0131FF315A501A6070BD5C7A00009E
S11317C0C11400006D1600007116000028020020EC
S11317D000E100E04269137802210B431370704763
S11317E04269537EDB09FCD190888006800F033860
S11317F0431E9841013070474269137B02210B4319
S11318001373537EDB09FCD17047000030B5446983
S113181025691F239D43194029432161637EDB0908
S1131820FCD141690B69064803401202F8204001CB
S113183002401A430A614B7EDB09FCD130BDC0462D
S1131840FFE0FFFF4169012A08D0022A0ED0002AD6
S113185003D1002B12D00123CB757047002B02D18A
S113186004338B75F9E70423CB75F6E7002B02D11B
S113187002338B75F1E70223CB75EEE701338B75E9
S1131880EBE7000010B5114B18684269117ED37D57
S11318900B40D9070AD5012313768468537EDB09EC
S11318A0FCD1528B92B20021A04710BD990707D4F6
S11318B05B07FAD504231376036800219847F4E7FD
S11318C002231376436800219847EEE7280200209C
S11318D043B2002B07DB1F2318401E3B83408022AA
S11318E0520001498B50704700E100E010B503003D
S11318F06420584302300321034B984703008000BF
S1131900C018400010BDC046695A00000139FDD816
S11319107047000010B5064B5A685A60054B98474B
S1131920054B9847054B9847FF20054B984710BD3A
S11319300040004165190000492500008925000088
S113194045190000C3070AD5054B802252009A604E
S1131950832252025A601A005378DB09FCD1704783
S1131960000C0040064B1A7AD2B21A725A7AD2B2DA
S11319705A729A7AD2B29A72DA7AD2B2DA72704718
S113198000040040C369DB0709D40368022213433F
S113199003600132C3691A42FCD10020704704205D
S11319A04042FBE710B50400084B9847084B9C469F
S11319B06444A40A0934E3B2220605D41F221A405F
S11319C001239340034A1360002010BD85190000D1
S11319D000F8FFBD00E100E010B50D4B9C466044EB
S11319E0800AC0B201280FD002280BD0032807D0E8
S11319F0084A09490020094B98470120404210BD7C
S1131A00013802E0012000E0002040B2F7E7C046C0
S1131A1000F8FFBD9E030000BC7A0000C114000062
S1131A2070B505000C000800314B9847C0B2E3695B
S1131A30DB0721D443001B18DB002E4AD318596856
S1131A401C2319400322E3691A42FCD123689B0733
S1131A500BD523680222934323600132E3691A42BF
S1131A60FCD10222E3691A42FCD101230B43236017
S1131A700322E3691A42FCD10122E3691A42FCD130
S1131A8043001B18DB001B4AD3185968216003224A
S1131A90E3691A42FCD143001B18DB00154AD31832
S1131AA09B6863600422E3691A42FCD143001B185B
S1131AB0DB00104AD318DB68E3608901890FA98130
S1131AC0636A0D4E1E4001238B429B415B429B0384
S1131AD0334363620422E3691A42FCD143001818B9
S1131AE0C000044B1818438AEB81002070BDC04627
S1131AF0D9190000747A0000FFBFFFFF10B504007D
S1131B00204BC3189B0ADBB2052B05D08F22920011
S1131B101D4900201D4B9847E369DB0718D40322B5
S1131B20E3691A42FCD123689B070BD52368022280
S1131B30934323600132E3691A42FCD10222E36930
S1131B401A42FCD1052323600322E3691A42FCD123
S1131B500122E3691A42FCD10D4B23600322E3699D
S1131B601A42FCD1C0239B0263600722E3691A4234
S1131B70FCD1084BA3810023A3733022A35400207B
S1131B8010BDC04600F8FFBDBC7A0000C1140000BF
S1131B9004003140ADD8FFFF70B505000C00431EB2
S1131BA09841C0B2B6220449044B98472C602000E7
S1131BB0034B984770BDC046BC7A0000C1140000B6
S1131BC0FD1A00000268136802210B4313600131FF
S1131BD0D3691942FCD17047036889B219857047EB
S1131BE00368188DC0B270470368187E012318403B
S1131BF070470368187E8007C00F70470368187E1B
S1131C004007C00F7047000070B504000D00431E6C
S1131C109841C0B2044A0549054B984725612900FB
S1131C202000044B984770BD0D050000BC7A0000ED
S1131C30C1140000211A0000F0B5DE4657464E4696
S1131C404546E0B583B00500884604690600731E66
S1131C509E41F3B20193B34FB34A39001800B34E17
S1131C60B0472869431E9841C0B2B14A3900B04711
S1131C704046431E9841C0B2AE4A3900B0476B8813
S1131C80DB0500D525E243465A8880235B001A43CE
S1131C9041464A802A00C1C9C1C2626813436360D5
S1131CA00422E3691A42FCD12F693B689946A24A8F
S1131CB09C4901989D4B98476B68012B5AD07B68CF
S1131CC09E4A13407B600422FB691A42FCD12B8894
S1131CD05A055CD56A88D20704D56A888021C90070
S1131CE00A436A805B00964919400422FB691A4240
S1131CF0FCD17B6A8022D2011A4080231B02134349
S1131D00194379620422FB691A42FCD129690B7ECA
S1131D10DBB28C4A0320184204D10B7EDBB2013AB9
S1131D20002AF8D13E680421FA691142FCD17A8B69
S1131D3092B2D90700D4A0E093073ED501233B76A5
S1131D406B88802149010B436B806B887E490B4073
S1131D506B800120030013405842584105386B88BA
S1131D60794A13406B8003B03CBC90469946A24626
S1131D70AB46F0BD4B461B01A1D57A688023DB023C
S1131D8013437B600422FB691A42FCD19FE76A88F3
S1131D905B00FF210B40FE39114019430422FB690B
S1131DA01A42FCD17B6A8022D20113400B437B622E
S1131DB00422FB691A42FCD1A8E753071BD46B88A1
S1131DC05B0535D52B88DB09062119400422FB6904
S1131DD01A42FCD17B6A8022D2011340F1221343C0
S1131DE00B437B62ED3AFB691A42FCD16B88574A7C
S1131DF013406B8066E06B68002B04DD6B888022E7
S1131E00520113436B806B881BB2002B06DB6B887B
S1131E104D4A13406B8002204042A0E77A68C023F9
S1131E209B0213437B600423FA691342FCD1EEE75F
S1131E306B68002B12D16B881BB2002B04DB6B8800
S1131E40414A13406B803DE07A68C0239B021343F0
S1131E507B600422FB691A42FCD1F0E7AB681A7874
S1131E602823FA540422FB691A42FCD1AB680133DB
S1131E70AB606B68013B6B6024E09B0722D56B6809
S1131E80002B40D052073ED43601F60F013B6B6065
S1131E90002B00D020E1002E00D123E16B881BB27F
S1131EA0002B1DDB6B88284A13406B80A9684B1CF0
S1131EB0AB600422FB691A42FCD12823FB5C0B7043
S1131EC002233B76002680235B009A4603210422EA
S1131ED0FF3B9C460133994626339B460196C3E05B
S1131EE07B68194A13407B600632FF32FB691A4251
S1131EF0FCD17A68C0239B0213437B600422FB69F4
S1131F001A42FCD1CEE702233B760220404226E768
S1131F106268C0239B02134363600422E3691A428C
S1131F20FCD1B6E0BC7A0000C5050000C114000075
S1131F30C6050000C70500009A050000FFFFFBFF6F
S1131F40FE070000FFFF0000FFFEFFFFFFFBFFFF97
S1131F5002421BD16B885B0535D52B88DB09062033
S1131F601840E3691A42FCD1636A8026F6013340C3
S1131F70F126334303436362E3691A42FCD16B885D
S1131F80784803406B80002301936DE06B68002B5D
S1131F9004DD6B888020400103436B806B881BB297
S1131FA0002B07DB6B88704803406B8002235B4285
S1131FB0019359E06068C0239B0203436360E369B3
S1131FC01A42FCD1EEE76B68002B13D16B881BB26D
S1131FD0002B06DB6B88644803406B80002301936D
S1131FE042E06068C0239B0203436360E3691A42D2
S1131FF0FCD1EFE7AB681B7858462354E3691A42D7
S1132000FCD1AB680133AB606B68013B6B600023B0
S1132010019329E0002601964E461E4224D06B68A7
S1132020002B4DD002424BD1FF0E60460740013BCE
S11320306B60002B00D082E0002F00D185E06B881C
S11320401BB2002B2CDB6B88474803406B80A868CD
S1132050431CAB60E3691A42FCD15B46E35C03704A
S11320604B462376002301936B88504603422DD0C0
S11320702E69337EDBB23D48194241D1337EDBB257
S113208001380028F8D143465B881BB2002B00DAE4
S11320903EE76B88344A13406B800520404262E679
S11320A06368314803406360E3691A42FCD16068A5
S11320B0C0239B0203436360E3691A42FCD1C2E775
S11320C04B46237602235B420193CDE7019E300009
S11320D049E60620404246E6012B00D0E6E6002E03
S11320E000D1E3E67A688023DB0213437B60042299
S11320F0FB691A42FCD16B68002B00D1CEE6D5E611
S11321002768E0690242FCD1608B80B266461E42B9
S113211000D17FE74B46034200D119E726766B884E
S11321208026760133436B806B880F4E33406B807F
S11321306346184046424641731F019394E7012BBE
S113214000D084E7002F00D181E760688023DB02A0
S113215003436360E3691A42FCD16B68002B00D12E
S11321606DE774E7FFFBFFFFFFFEFFFFFFFF0000CB
S113217010B5124B18680268117E937D0B40D90785
S113218007D4590708D4990709D45BB2002B0BDB99
S113219010BD83689847FBE7C3689847F8E70223B4
S11321A0137603699847F3E7042353837C33137648
S11321B04369132149429847EAE7C0462C020020AC
S11321C070B505000C00384BCB189B0ADBB2042B0E
S11321D00CD0002854D0601E8441E0B29422120135
S11321E03249334B98470D20404248E0002850D1F3
S11321F0942212012D4900202D4B9847E369DB07F7
S113220018D40322E3691A42FCD123689B070BD537
S113221023680222934323600132E3691A42FCD10A
S11322200222E3691A42FCD1092323600322E369F1
S11322301A42FCD10122E3691A42FCD12C6020002D
S1132240431E9841C0B21B4A1849194B98471A4B70
S113225023600322E3691A42FCD1184B636007220E
S1132260E3691A42FCD1002363623022A354E36978
S1132270002BFCD101332B710023EB80002070BDB7
S11322809422120109490020094B98470D2040422D
S1132290F5E70800431E9841C0B294221201034995
S11322A0034B9847AAE7C04600F8FFBDBC7A00007C
S11322B0C1140000FF0800000800230040020200CF
S11322C070B505000C00164B984700281DDB154B14
S11322D09C421BD000232B61EB60AB60124B9C46ED
S11322E06444A40A0934E3B2220617D41F221A4014
S11322F0012393400D4A80215350BFF34F8FBFF306
S11323006F8F0131FF315350002070BD084B1D60A9
S113231000232B61EB60AB600D33E7E70020F4E7AB
S1132320C12100000018004200F8FFBD00E100E0F8
S11323302C02002010B5014B984710BDC1220000AB
S113234010B5041E0CD00068431E9841C0B29B22F5
S113235012010449044B98472068044B984710BD68
S11323600020F4E7BC7A0000C1140000A5190000A5
S113237070B50D00046800280DD02000431E98415C
S1132380C0B2074A0749084B9847002D05D10123DD
S11323902375002070BD0020F3E70123A375F8E73F
S11323A0CC0A0000BC7A0000C114000010B5014B37
S11323B0984710BD71230000F8B50E0005680C4C59
S11323C0431E9841C0B2AE2212012100094FB84702
S11323D02800431E9841C0B2074A2100B847002E86
S11323E003D104232B750020F8BD0423AB75FAE751
S11323F0BC7A0000C1140000E10A000010B5014BD2
S1132400984710BDB923000070B504000D000028E2
S11324100ED00068431E9841C0B2084A0849094BCF
S11324209847002D06D1236802221A75002070BD3A
S11324300020F2E7236802229A75F7E7F30A000006
S1132440BC7A0000C114000010B5014B984710BDC0
S11324500924000070B504000D0000280BD00068AA
S1132460431E9841C0B2054A0549064B9847236864
S11324709D62002070BD0020F5E7C0460E0B0000F1
S1132480BC7A0000C114000010B5041E0BD0006813
S1132490431E9841C0B2054A0549064B9847236834
S11324A0986A80B210BD0020F5E7C046270B0000F3
S11324B0BC7A0000C114000070B504000D001600C1
S11324C000280FD0002003238B424041C0B20123D7
S11324D01840054A0549064B9847AD006419A660A3
S11324E0002070BD0020F2E7390B0000BC7A000028
S11324F0C114000010B5014B984710BDB924000069
S113250070B504000E001500431E9841C0B2084A7D
S11325100849094B9847032E00D070BD2368002D4D
S113252002D080229A75F8E780221A75F5E7C04632
S11325307A0B0000BC7A0000C114000010B5014BF6
S1132540984710BD012500000D4B1A6A1A6A920FB4
S113255092070C490A431A629A6902210A439A6152
S11325601A7F1D310A401A7719000822CB681A42D3
S1132570FCD0034A136A80210B4313627047C046A0
S11325800008004002030000024A936902218B43C1
S11325909361704700080040F8B507000C003C4BFD
S11325A0CD18AD0AEDB2002D51D09F225200394909
S11325B00020394B984701267642FC608B2235492E
S11325C00120354B9847E37BDB09FCD123889B072B
S11325D004D500232380E37BDB09FCD10123238082
S11325E0E37BDB09FCD1B3009B199A002B4B9B18AE
S11325F05A88228018792072DB8863810C23134067
S1132600082B26D0002B2ED1B3009B199B00234A04
S1132610D3189B8923830023638301236373204B93
S11326209C4231D01235EBB22A060ED41F221A4036
S1132630012393401B4A80215350BFF34F8FBFF3B4
S11326406F8F0131FF31535013600020F8BD002615
S1132650B3E7B3009E19B600104B9E19F368A3614B
S11326600023E361D9E7042BD7D10C48B3009A19AE
S113267092008218127B2276002262769B199B00BC
S1132680C3181B7A2375C8E7074B1F60CAE7C04607
S113269000D4FFBDEC7A0000C1140000D87A000019
S11326A0002C004200E100E030020020C2681388E0
S11326B002210B4313807047C36818888007C00F3A
S11326C0704700207047000010B5C068044B9C465A
S11326D06044800A1230C0B2024B984710BDC04615
S11326E000D4FFBDD118000010B5064B1868C368AC
S11326F09A7BD20700D410BD01229A7303689847CD
S1132700F9E7C0463002002070B50A4B98470A4BDF
S113271098470A4B98470A4B98470A4D0A4E0B4C68
S11327202800B047A0470A4B98470A480A4B9847E5
S1132730F6E7C04619010000292F0000E12A000035
S113274019280000007B0000853A0000BD2A000023
S1132750ED2B0000B80B0000C10B000070B5104C4D
S11327600223220000210F480F4DA84763781B0263
S11327702178194361800D480D4DA84760880D4BA1
S113278098470D4A0D4B0E4EB04700220D4B0E4E8E
S1132790B04702000B000D48A8470123237170BD08
S11327A034020020CC030020450A0000087B00000E
S11327B0913900002D7800006666666666660A40F8
S11327C0596C000000FEAF40F16300001C7B000068
S11327D0014B58887047C04634020020014B1879D9
S11327E07047C0463402002070B501000022064B39
S11327F01A71064C002318322000054DA84720000A
S1132800044B984770BDC04634020020CC0300201E
S1132810590B0000310B000070B5064C064B00222A
S113282000212000054DA84700212000044B9847B3
S113283070BDC046CC0300205D270000C90900001C
S11328408909000070470000024A136801331360CD
S11328507047C0463C020020F8B5CE46474680B5D6
S113286004000E00017943791B020B4333D01D1C75
S1132870934200D9151CADB2002D1ED02378607888
S1132880000218434319802B2AD980273F1AA31D1D
S1132890984640443A003100154B99469847EA1B44
S11328A0F1194046C847227863781B021343EB189A
S11328B07F221340237000236370227963791B0203
S11328C013435B1B9BB223711B0A637128000CBC6E
S11328D090469946F8BD0748074B98470020F6E70D
S11328E0A31D18182A003100014B9847DBE7C046A6
S11328F08D300000347B00009139000010B582B0A7
S1132900094C01226B46D91D6068084B984720008A
S1132910083001226B46D91D054B9847054A1369B7
S11329200133136102B010BD3C020020450D0000CC
S113293059280000BC020020F0B5DE4657464E463A
S1132940C0B582B004000191037945792D022B436F
S11329508025ED1A3DD01600AA4200DD2E00B5B246
S1132960002D24D0A378E1780902194337043F0CE1
S1132970CB19802B31D98022531A9946A31D9A462C
S113298051444A460198184B9B469847019B4B4437
S113299018004B46FA1A5146D847A278E3781B022E
S11329A01343EB187F221340A3700023E3702279B2
S11329B063791B021343ED18ADB225712D0A6571BD
S11329C03604350C280002B01CBC91469A46A34636
S11329D0F0BD0648064B9847F4E7A31D59183A0082
S11329E00198014B9847D8E78D3000005C7B0000CC
S11329F091390000F0B5C64600B586B006000191D5
S1132A00002202ABDA71027943791B021343802B53
S1132A104DD002ABDC1D284F012221003000B84705
S1132A2023787E2B0AD0327973791B021343802BCF
S1132A30F2D1002006B004BC9046F0BD327973791F
S1132A401B0213430020802BF4D0002502ABDC1DB5
S1132A50194B984604AF012221003000C047237867
S1132A60EB55327973791B021343802B21D0013546
S1132A70052DF0D102ABDC1D0122210030000E4BEC
S1132A80984723787D2B04D001993000FFF7B2FFDB
S1132A90D0E704AB1A7801990A705A784A709A7888
S1132AA08A70DA78CA701B790B710120C2E70020A2
S1132AB0C0E70020BEE7C0463929000010B5044B2A
S1132AC01A68044B19690448044B984710BDC04662
S1132AD03C020020BC020020747B000091390000FD
S1132AE070B5154C211D154D2800154B9847154AF6
S1132AF000212800144EB047144A02212800B04790
S1132B00134A01212800B0472800124B984700259A
S1132B10258165818026A68120000E308022002137
S1132B200D4CA0470D488582C58206831A30802249
S1132B300021A04770BDC0463C02002010040020C4
S1132B400D11000049280000A910000045280000CC
S1132B50FD2800004D1000009F300000BC02002042
S1132B60F0B5CE4600B582B00700174B997E1748E2
S1132B70174CA047174EB28A174D29891748A0470A
S1132B80F28A69891648A047328BA9891548A0475B
S1132B90002F15D0013FFFB2073706240E4B082241
S1132BA0914699440B4E1436A11F4B46E25CA35D3B
S1132BB000930B000C48064DA8470134BC42F3D1E6
S1132BC002B004BC9146F0BD3C030020907B0000A1
S1132BD091390000BC0200203C020020A07B0000D0
S1132BE0C87B0000EC7B0000187C0000F0B5C646F2
S1132BF000B586B01E20B14B9847002205AB1A8061
S1132C00AF491C31AF480830AF4B9847071E00D17D
S1132C109AE0AB4B1A7F032313400824110700D515
S1132C200834520700D4BDE0002B45D1A44B9B7F50
S1132C30002B13D05A1E022A35D8012B27D0022B81
S1132C4029D0032B2BD0A14CA0470028FCD0A04BAB
S1132C50984705AB020A1A7058703FE002A89D4BD2
S1132C609847C023DB0580229C5820329A498A5811
S1132C7090215B5853401C40544002A8974B9847FE
S1132C8005ABE406E40F1C7000225A7026E0002015
S1132C90934B9847D7E70120914B9847D3E70620F9
S1132CA08F4B9847CFE78F488F4B984705ABDD2272
S1132CB01A7000225A7011E05A1E022A69D8012B98
S1132CC047D0022B4DD0032B53D0082C59D07C4B2A
S1132CD0997F022305AA8548854CA0476B46DE1DD3
S1132CE07E233370834C1434012231002000824D42
S1132CF0A847734B984619001C3101222000A847AD
S1132D0041461D3101222000A84741461E310122BF
S1132D102000A847012205A92000A8470122152167
S1132D2069442000A8477D2333700122310020002C
S1132D30A847072203A92000704B9847002800D019
S1132D40B5E001225E4B9A76380006B004BC90468A
S1132D50F0BD5B4B597F802212016448684B984751
S1132D60B3E7574B597F802212016648644B98475A
S1132D70ABE7534B597F802212016348604B98475D
S1132D80A3E74F4B997F012305AA5848584CA04705
S1132D90A4E75E48544B984705ABCC221A70002236
S1132DA05A709BE7002B1CD1454B9B7F002B0FD106
S1132DB0434BDB7F012B05D010219423C022D20585
S1132DC0D1508BE710219733C022D205D15085E72B
S1132DD04448454B984705ABDD221A7000225A70CF
S1132DE07CE75A1E022A59D8012B19D0022B1FD076
S1132DF0032B25D003AB324A917F1970D17F5970D0
S1132E002021525C9A70082C22D0102C33D04048D8
S1132E10354B984705ABEE221A7000225A705DE7D5
S1132E20274B597F802212013048354B9847E1E700
S1132E30234B597F802212013248314B9847D9E7FE
S1132E401F4B597F802212012F482D4B9847D1E701
S1132E500122190025482F4B9847002805D105ABBE
S1132E60AA221A7000225A7038E705ABBB221A70E6
S1132E7000225A7032E7022203A91C48254B9847C6
S1132E80002805D105ABAA221A7000225A7025E742
S1132E9005ABBB221A7000225A701FE71B48124B65
S1132EA0984705ABCC221A7000225A7016E7054BDE
S1132EB05868072203A9184B984742E7612B000082
S1132EC03C0300203C020020F5290000DD2700001F
S1132ED0D1270000A50B000000440041B30B000003
S1132EE0E9270000487C0000853A000068040020BF
S1132EF0C90C0000BC020020592800003929000038
S1132F00810C0000AC03002080030020647C0000DE
S1132F10847C0000950C0000110D000004219C230A
S1132F20C022D205D150704710B50849FA239B003E
S1132F308B60074BCB6001230B74064C2000064BBF
S1132F4098472000054B984710BDC04660030020F9
S1132F501D2F000088040020B91200007D1200001B
S1132F6010B50B00002809D111001800054B984733
S1132F70002800DB10BD01204042FBE70120404255
S1132F80F8E7C046DD2F000010B50B000138022819
S1132F9009D811001800054B9847002800DB10BD24
S1132FA001204042FBE701204042F8E701300000E5
S1132FB070B50600064D2B6898680021054CA047A3
S1132FC02B6858680021A047034B1E6070BDC046A3
S1132FD000000020993A00007403002010B504009A
S1132FE0054B1868002804D08AB22100034B984787
S1132FF010BD0020FCE7C04674030020450D00000E
S113300010B50400054B1868002804D08AB22100CA
S1133010034B984710BD0020FCE7C0467403002012
S1133020110D000010B5044C2000044B98472000FB
S1133030034B984710BDC046A00300209514000020
S1133040B12F000070B500260C4D0D4C641BA4106C
S1133050A64209D1002604F0C7FF0A4D0A4C641B9E
S1133060A410A64205D170BDB300EB5898470136B1
S1133070EEE7B300EB5898470136F2E7F47F00001F
S1133080F47F0000F47F0000F87F0000002310B5F7
S11330909A4200D110BDCC5CC4540133F8E703005C
S11330A08218934200D1704719700133F9E7F0B5E3
S11330B08BB014001D1E129953DA802424061B19A8
S11330C01D0014002D230B702023149E03229E4305
S11330D0462E07D03300453B59424B411099013AE3
S11330E0CB18109309AB049308AB0393139B009282
S11330F00293109B220001932B0000F0DBFE0700DB
S1133100472E02D1119BDB0724D5109BFB18079394
S1133110462E14D13B78302B0CD100220023200002
S1133120290002F027FE002804D10123109A9B1ADB
S1133130139A1360139B079A1B68D31807930022F2
S113314000232000290002F015FE302200280DD0B3
S1133150079B09933800099B159ADB1B13600BB07E
S1133160F0BD0023AFE7591C09911A70099B079918
S11331709942F8D8EEE7F0B52B2385B007000C0090
S11331800270861C002901DA2D234C427B70092C25
S113319023DD02ABDD1D6B1E20000A21019302F02A
S11331A0D3FD6B1E3031197020000A2102F0E6FCB9
S11331B0040009280ADC023D30342C7002AB0733CA
S11331C03000AB4204D8C01B05B0F0BD019DE2E75E
S11331D02B78013533700136F0E73023E41833706F
S11331E0B01C7470EFE70000F0B595B00C000A92C3
S11331F00B931A9D099001F0D3FD036818000D93F9
S113320000F000FD0023129323680E900C930C9998
S1133210277E2B680722C90547D59B1893431A00BC
S113322008322A601A685B68A264E3640122E56CD0
S1133230A66C6B005B080F935242A74B30000F99AA
S113324004F0A0FA002800D006E20122A24B524268
S113325030000F9902F09EFD002800D0FCE100220E
S113326000233000290002F08BFD002803D0230046
S11332702D2243331A70994D472F00D8984D0323BC
S113328000260C9A236101339A4322600B9B13AAF4
S1133290009321000A9B099800F0F2F9431C00D026
S11332A09CE00120404215B0F0BD0733B6E780230F
S11332B06268DB00511C45D1073262600C9A002120
S11332C0134312AA059211AA0392232223600691A2
S11332D0019308A9636852180292009332002B00EC
S11332E004970998FFF7E3FE20233A0005009A4368
S11332F0472A07D1119BDA1C02DB626893425BDD2B
S1133300023FFFB21199652F3BD8200001393A00E2
S113331050301191FFF72FFF129A06008318236192
S1133320012A02DC2268D20701D501332361232359
S113333008AA9B181B78002BA8D023002D22433306
S11333401A70A3E7672F01D0472FB7D1002A16D0F0
S11333500C9908A80B430021069112A9059111A903
S11333600391232109182360019300922B000497F1
S1133370029132000998FFF79AFE0500BAE701228C
S11333809BE7662F19D1636800290CDD2161002BAE
S113339002D12268D20702D501335B182361119B45
S11333A00026A365C3E7002B03D101222168114243
S11333B000D09A1C2261F2E76727119B129883427E
S11333C005DB22682361D207E9D50133E6E7012250
S11333D0002B01DC9218D21A1218EBE7226853056D
S11333E008D423692A000A9909980B9DA847431C0D
S11333F029D156E7652F00D8DCE0A06CE16C0022EF
S1133400002302F0B7FC002835D00123354A0A997D
S113341009980B9DA847431C00D142E7119B129ABF
S1133420934202DB2368DB070DD50B9D0E9B0D9A9F
S11334300A990998A8470025431C00D131E7129B3B
S1133440013B9D420BDB236800259B0700D5FDE073
S1133450139BE068984200DB25E7180023E722006D
S113346001231A320A9909980B9EB047431C00D1D4
S113347017E70135E3E7119B002B35DC0123194ADB
S11334800A9909980B9EB047431C00D109E7119B88
S1133490002B05D1129B002B02D12368DB07D2D568
S11334A00B9E0E9B0D9A0A990998B0470026431C5F
S11334B000D1F6E6119B5B429E4201DB129B91E731
S11334C0220001231A320A9909980B9FB847431C1A
S11334D000D1E6E60136EDE7FFFFEF7FAC7C0000AC
S11334E0A87C0000B87C0000A36D129E9E4200DD03
S11334F01E00002E35DC00230C93F343DB170F93DF
S11335000F9BA76D0C9A3340FB1A9A4232DB119B36
S1133510129A93423CDB2368DB0739D4129E119A3A
S1133520F31BB61A9E4200DD1E00002E39DCF74361
S11335300025FB170C93119A129B0C999B1A3200CD
S11335400A409B1A9D4200DB7DE7220001231A32C8
S11335500A9909980B9FB847431C00D1A1E601358D
S1133560E9E733002A000A9909980B9FB847431CDE
S1133570C1D196E6220001231A320A9909980B9FB9
S1133580B847431C00D18CE60C9B01330C93B7E77E
S11335900E9B0D9A0A9909980B9EB047431CBDD106
S11335A07FE6EA1933000A9909980B9DA847431C42
S11335B0BDD176E6129B012B02DC01231A4238D0DE
S11335C001232A000A9909980B9FB847431C00D18C
S11335D067E60E9B0D9A0A9909980B9FB847431CFE
S11335E000D15EE6A06CE16C0022002302F0C2FB75
S11335F0002808D00025129B013B9D420DDB2200D0
S113360033005032EFE6129B6A1C013B0A99099879
S11336100B9DA847431CF2D143E6220001231A3232
S11336200A9909980B9FB847431C00D139E6013524
S1133630E1E72A00EAE72200012319320A990998EE
S11336400B9EB047431C00D12BE60135E368139A67
S11336509B1A9D42EFDBFBE632002B003000290071
S113366004F090F8002800D121E6034D472F00D93B
S113367005E6024D03E6C046B47C0000B07C0000C1
S1133680F7B5150001938A680B6900900C0093420A
S113369000DA130022002B6043321278002A01D092
S11336A001332B6023689B0602D52B6802332B6001
S11336B0062723681F4027D0230043331B785A1E54
S11336C093412268920630D4220001994332009833
S11336D0089EB047431C25D0062320682A68E16869
S11336E003400025042B03D18D1AEB43DB171D4047
S11336F0A3682269934201DD9B1AED180027BD429D
S113370020D1002010E00137E3682A689B1A9F4209
S1133710D2DA22000123193201990098089EB04799
S1133720431CF0D101204042FEBD3020E11843315A
S1133730087021005A1C45310978A218433202331B
S11337401170C1E7220001231A3201990098089EE2
S1133750B047431CE6D00137D1E70000F0B58BB089
S113376006920A0043320793059004920A7E0C00E5
S1133770109B6E2A00D18FE017D8632A2CD008D86A
S1133780002A00D199E0582A54D0260042363270DB
S113379029E0642A01D0692AF7D121681A68080649
S11337A023D5111D1960156825E0732A00D188E01E
S11337B008D86F2A29D0702AE7D1202209680A4341
S11337C0226003E0752A20D0782ADED122007821F5
S11337D0453211706C4A30E00E001A684236111DF1
S11337E0196013683370012379E04906D9D5111D96
S11337F019600023D55E002D03DA2D23049A6D424F
S11338001370624B0A2703932FE02068196805069A
S113381003D5081D18600D6805E04006F9D50D684C
S1133820081D1860ADB2594B082703936F2A18D0AE
S11338300A2716E045310A70544A03921A6821682F
S1133840101D18601568080622D5CB0702D5202361
S1133850194321601027002D03D1202322689A43A5
S113386022602300002243331A706368A360002B94
S11338705CDB0422216891432160002D58D1049E11
S1133880002B64D02600039B42361B7833705EE025
S11338904806DAD5ADB2D8E709681A68080605D52E
S11338A0111D1960136862691A6006E04906F7D5AC
S11338B0111D19601368A28A1A800023049E2361D3
S11338C054E01A68111D19601668002162683000FE
S11338D001F0E8FA002801D0801B6060636823616E
S11338E00023049A137041E0236932000699059875
S11338F0079DA847431C43D0236800259B070FD48A
S1133900099BE06898423DDA18003BE0220001235D
S1133910193206990598079EB047431C30D00135EB
S1133920E368099A9B1A9D42F0DBE9E7002DA9D0D0
S1133930049E2800390002F01DF9039B013E5B5CE4
S113394028003370390002F08FF8051EF1D1082FDA
S113395009D12368DB0706D563682269934202DC38
S11339603023013E3370049B9B1B2361079B09AAF0
S113397000932100069B0598FFF782FE431CB3D1F8
S1133980012040420BB0F0BDCB7C0000BA7C0000AB
S11339900FB40B4B13B51C68002C05D0A369002B86
S11339A002D1200001F066F905AB049AA168200059
S11339B0019301F043FE16BC08BC04B01847C0468E
S11339C00000002070B505000E00002804D08369B3
S11339D0002B01D101F04EF9AB69AC68002B02D188
S11339E0280001F047F9244B9C420FD16C68A3894D
S11339F01B0702D52369002B20D12100280000F0E9
S1133A005FF900281AD00120404270BD1B4B9C4234
S1133A1001D1AC68EBE71A4B9C42E8D1EC68E6E7CD
S1133A20013B0136A360002B04DAA269934216DB42
S1133A300A2914D023685A1C226019703178A368AB
S1133A400029EDD1013BA360002B0FDA22000A31DB
S1133A50280000F0DFF8431CD5D00A20D5E7220067
S1133A60280000F0D7F8431CE8D1CCE70A202368EB
S1133A705A1C22601870C8E70C7D00002C7D0000E1
S1133A80EC7C000010B5034B01001868FFF79AFFA7
S1133A9010BDC046000000204A424A41802310B5B0
S1133AA05200DB0000F002F810BD0000F0B51D006C
S1133AB04F4B85B01E6804000F000092002E05D005
S1133AC0B369002B02D1300001F0D4F8494B9C4279
S1133AD050D17468009B022B05D0012B00D984E0DF
S1133AE0002D00DA81E02100300001F055F8616B0F
S1133AF0002908D023004433994202D0300001F059
S1133B00CDFC002363630023A3616360A3891B06C8
S1133B1003D52169300001F0C1FCA389364A134062
S1133B20A381009B022B5AD003AB02AA21003000D0
S1133B3001F042F9A3891843A081002D24D1029DEC
S1133B40280001F0A5F90195071E42D1029B0193BB
S1133B50AB4239D1012040420223A2891343A381FD
S1133B600023A3602300473323602361012363619F
S1133B7005B0F0BD214B9C4201D1B468AAE7204BAB
S1133B809C42A7D1F468A5E7002FD9D0B369002BD4
S1133B9002D1300001F06EF8009B012B03D1A38900
S1133BA0009A1A43A2810820A389276027616561CE
S1133BB0184018D0012018400023984211D06D42BB
S1133BC0A360A5611800D3E7019801F061F9071E0D
S1133BD0C0D08023A289019D1343A381D6E700208E
S1133BE0BAE7A560C4E7A060C2E701204042BFE78E
S1133BF0000000200C7D00005CF3FFFF2C7D000022
S1133C00EC7C00000023C25C0133002AFBD1581E67
S1133C1070470000F8B505000E001400002804D019
S1133C208369002B01D101F025F8224B9C422DD150
S1133C306C68A369A360A3891B0731D52369002B92
S1133C402ED023682269F7B2981A6369F6B29842B3
S1133C5005DB2100280000F09FFF002826D1A3687F
S1133C600130013BA36023685A1C22601F70636902
S1133C70984204D0A389DB071AD50A2E18D1210053
S1133C80280000F089FF002812D00FE00A4B9C4264
S1133C9001D1AC68CDE7094B9C42CAD1EC68C8E7B6
S1133CA02100280000F00CF80028CAD00126764232
S1133CB03000F8BD0C7D00002C7D0000EC7C000081
S1133CC0364B70B51D6806000C00002D05D0AB699D
S1133CD0002B02D1280000F0CDFF314B9C420FD1C4
S1133CE06C680C23E25E93B219072DD4D90611D463
S1133CF009230120336037331343A381404270BD4D
S1133D00284B9C4201D1AC68EBE7274B9C42E8D19D
S1133D10EC68E6E75B0713D5616B002908D0230044
S1133D204433994202D0300001F0B8FB00236363AE
S1133D302422A3899343A38100236360236923601E
S1133D400823A2891343A3812369002B0BD1A0214B
S1133D508022A389890092000B40934203D0210062
S1133D60300001F051F80123A289134011D000233F
S1133D70A36063695B42A361002023698342BED1CF
S1133D800C23E25E1306BAD540231343A381013802
S1133D90B5E7920700D46369A360EDE70000002053
S1133DA00C7D00002C7D0000EC7C0000F0B5036964
S1133DB00C6989B00700059100269C426DDC0B005C
S1133DC0013C1433A50003935B19049303001433DB
S1133DD002935D19049B28681B68591C019301F028
S1133DE043FE0190B0422DD0039B02989C46069658
S1133DF0624608CA9446019A99B251431B0C534334
S1133E0089190A0C9B18079302881E0C069B89B219
S1133E10D2180368521A190C6B469B8BCB1A1114D7
S1133E205B18191492B21B041A43049B069104C034
S1133E306345DDD22B68002B04D1029B043DAB42C9
S1133E402ED33C610599380001F049FA002823DBA0
S1133E500025019B029801330399019308C9028844
S1133E6055199AB2AA1A05681B0C2D0CEB1A1514D5
S1133E705B191D1492B21B04134308C0049B8B42AC
S1133E80ECD2029AA300D3181A68002A04D1029A29
S1133E90043B9A4209D33C61019E300009B0F0BD55
S1133EA02B68002BCDD1013CC7E71A68002AF2D158
S1133EB0013CECE7F0B516001F00446A9DB0049085
S1133EC0259D06960797002C08D1102000F0E0FFEE
S1133ED0049B5862446084600460C460049B5B6A11
S1133EE0196800290BD05A68012393404A608B60FB
S1133EF0049801F01AF80022049B5B6A1A60079B7D
S1133F00002B1FDA01232B607B005B080793079CBF
S1133F10B74B220019931A409A4216D1B54B249AF2
S1133F201360069B002B03D1240301D100F091FD03
S1133F30B14B269A0A93B14B002A01D000F08FFDB1
S1133F4000F08FFD00232B60E1E7069E079F00220F
S1133F5000233000390001F00DFF051E0ED00123AF
S1133F60249A1360A64B269A0A93002A01D100F0E2
S1133F7078FDA44A26990A6000F073FD1AAB0193F8
S1133F801BAB009332003B00049801F025FA630058
S1133F9005905B0D00D17FE03A039B4C120B144358
S1133FA021009A4A300018959E180022984B03F07D
S1133FB0D3F8984A984B02F04FFE984A984B01F078
S1133FC007FF040030000D0003F030FC954A964BC7
S1133FD002F042FE02000B002000290001F0F8FE6E
S1133FE004000D0003F0EEFB0022039000232000E8
S1133FF0290001F0C5FE00280ED0039803F016FC3A
S11340000B0002002900200001F0B4FE0300584216
S11340105841039B1B1A039301231693039B162BEE
S11340200FD88249DB00C91808684968069A079BBB
S113403001F0BAFE00284BD0039B013B03930023FD
S113404016931A9B9E1B00230B933300013B0C9386
S113405004D501239B1B0B9300230C93039B002B80
S113406038DB039A0C9B944663440C9300230F9211
S11340700893229B0125092B00D991E0052B02DD31
S11340800025043B2293229B981E032800D991E02B
S113409001F0E0FC828429761A9B1B9A9E18644BDB
S11340A0F218202A0FDD634B0698F318D8404023FA
S11340B09B1A9C40204303F0FBFB01235E4C013E12
S11340C00919189371E7202306989B1A9840F2E780
S11340D01690B6E70B9B039A9B1A0B9353420893D3
S11340E000230F93C5E701230E93239B002B65DD6B
S11340F01F000D93049A546A002262600432110076
S1134100143199425FD96168049800F0D6FE049B8B
S113411020605B6A1B680A930E2F00D905E1002D0D
S113412000D102E1069B079C14931594039B002B7A
S113413000DC85E01A000F213C4B0A40D2009B189A
S11341405C681B6810931194039B02241D11EB06F9
S11341500AD53A4B0D401A6A5B6A1498159902F015
S113416047F9069007910134344E002D30D1109A4E
S1134170119B0698079902F03BF9069007917AE0A3
S11341800123239A0E939446039B63445F1C0D936F
S11341903B1EAFDC0123ADE70023A5E70023F0E7D6
S11341A000230E952293013B00220D931F0013332D
S11341B023929FE701230E93023BF5E701230D931E
S11341C01F001A00F4E7616852000131616096E74C
S11341D001231D4208D010981199E41832687368BD
S11341E002F03AFD109011916D100836BDE7C046FB
S11341F00000F07F0F270000E57C0000E87C000051
S1134200B87C0000B97C00000000F03F01FCFFFF17
S11342100000F83F61436F63A787D23FB3C8608B48
S1134220288AC63FFB799F501344D33F787D000012
S11342303204000012040000000010FE507D000053
S1134240039B0224002B16D0149815995D420F236A
S1134250CA4A2B40DB00D3181A685B6802F0FCFCE6
S1134260002306900791C64E2D11002D00D08CE03E
S1134270002B00D081E7169B002B00D191E0069A19
S1134280079B10921193109811990022BD4B01F0D5
S113429077FD002800D184E0002F00D181E00D9B40
S11342A0002B3EDD10981199039B00225E1EB64B35
S11342B002F0D2FC069007910D9D0134200003F01A
S11342C0B5FA069A079B02F0C7FC0022AF4B01F037
S11342D07FFD12901391129B139CAD4A109311947D
S11342E0139B9C181194002D5ED106980799002207
S11342F0A84B02F031FF109A23000690079101F0B9
S113430053FD002800D001E3A34813998446614477
S11343100B0006980799109A01F032FD002800D08E
S1134320E8E2149B159C069307941B9B002B00DA70
S113433057E1039A0E2A00DD53E1904BD2009B18FB
S11343405C681B6808930994239B002B00DBCEE078
S1134350002F00DDCBE000D0CFE2089809990022BD
S11343608C4B02F079FC069A079B01F027FD3E0076
S11343700897002800D0A4E20A9B0A9A5D1C312306
S11343801370039B013303939FE20122154205D06E
S1134390A4183268736802F05FFC01236D100836BC
S11343A063E7039E3D0089E70A9A691E5219179232
S11343B00E9A724BC900002A4AD05B181A685B68CF
S11343C00020764902F014F8109A119B02F0C4FE02
S11343D00A9B1090119112930698079903F0F2F931
S11343E0040003F023FA02000B000698079902F078
S11343F0B3FE129B30345D1C1C70109A119B069006
S1134400079101F0BDFC002865D1069A079B0020A6
S11344105C4902F0A1FE109A119B01F0B1FC002846
S113442000D0BEE0179B9D4200D17AE71098119905
S11344300022554B02F010FC0022109011910698B6
S11344400799514B02F008FC129506900791C3E7B7
S1134450591808684968109A119B02F0FDFB1090E6
S113446011910A9C179D0698079903F0ABF91290D5
S113447003F0DCF902000B000698079902F06CFEC9
S1134480129B0690079130332370179B013400224E
S1134490A34224D1414B1098119901F099FC0200D8
S11344A00B000698079901F07FFC002800D078E003
S11344B0109A119B0020394902F04EFE02000B00B5
S11344C00698079901F05CFC002800D129E76B1ECF
S11344D01A78302A01D003963FE01D00F7E70698CA
S11344E00799294B02F0B8FB06900791BBE70A9E97
S11344F0089A099B0698079901F07AFF03F062F97C
S1134500040003F093F9089A099B02F0A5FB0B0041
S113451002000698079902F01FFE2300303333701F
S11345200A9B751CEB1A9F424CD102000B0001F050
S11345304FFC06000F0002000B000898099901F0D7
S11345401FFC00282CD10898099932003B0001F087
S113455011FC002801D0E30722D40599049800F047
S1134560E4FC00232B70039B249A01331360269BE5
S1134570002B00D175E21D6073E2C046787D000017
S1134580507D00000000F03F0000244000001C406B
S11345900000C0FC000014400000C07C0000E03FAC
S11345A0039E6B1E1A78392A06D10A9A9A4207D1B9
S11345B030231370130001361A7801321A708AE717
S11345C01D00EEE70022CF4B02F046FB0022002341
S11345D0069007912E0001F0CDFB002800D187E75B
S11345E0BBE70E9A002A00D187E0229A012A6EDCEA
S11345F0189A002A67D0C44A9B18089D0B9C0B9AF2
S11346000121D2180B920C9A0498D3180C9300F041
S11346102AFD0600002C0EDD0C9B002B0BDD0C9AF2
S11346202300944200DD13000B9AE41AD21A0B9271
S11346300C9AD31A0C93089B002B1ED00E9B002BB4
S11346405FD0002D11DD31002A00049800F0A4FD94
S1134650059A01000600049800F00EFD05991090DB
S1134660049800F062FC109B0593089B5A1B04D02D
S11346700599049800F090FD05900121049800F03C
S1134680F2FC0F9B0890002B3DDD1A0001000498FA
S113469000F082FD229B08900025012B3BDC0025C5
S11346A0069BAB4233D1079B1B03AB422FD1199B13
S11346B0079A13422BD00B9B013501330B930C9BB0
S11346C001330C9323E036231A9A9B1A95E7089B2F
S11346D07D1EAB4206DB5D1B002F0BDA0B9BDC1B44
S11346E000238CE7089B0895EA1A0F9B00259B186A
S11346F00F93F1E70B9C3B0081E7089D0B9C0E9EFA
S113470088E7089AB4E7229B0025012BC7DD0F9B9D
S11347100120002B0BD0089B089A1B690F930333CD
S11347209B00D318586800F055FC2023181A0C9BE2
S1134730C0181F23184000D1ABE001331B1A042B0F
S113474000DC9BE01C23181A0B9B24181B180B93EA
S11347500C9B1B180C930B9B002B05DD1A00059971
S1134760049800F06BFD05900C9B002B05DD1A00EE
S11347700899049800F062FD0890169B002B00D164
S113478089E00899059800F0AAFD002800DB82E082
S1134790039B0A22013B039305990023049800F02C
S11347A0DDFB0E9B0590002B00D15DE10023310061
S11347B00A22049800F0D2FB0D9B0600002B02DCB9
S11347C0229B022B6DDC002C05DD310022000498B5
S11347D000F034FD06003000002D11D071680498FB
S11347E000F06BFB3100040033690C319A1C920019
S11347F00C30FEF74BFC01222100049800F01EFD52
S11348000D9F0A9B013F0B93DB19370006000F93A2
S113481008990598FFF7CAFA39000D900400059825
S113482000F05DFD32000E900899049800F070FDD0
S113483001230C93C36830340500002B04D101001C
S1134840059800F04CFD0C902900049800F06DFBD5
S11348500C9B229A134300D089E0069A0133134239
S113486000D084E0392C00D1A3E00E9B002B01DDA5
S11348700D9C31340B9B5D1C1C7027E0042B00D174
S113488069E70B9A1C33D2180B920C9AE418D318CC
S113489060E70300F5E7002F3CDC229B022B39DDA7
S11348A00D970D9B002B0CD108990522049800F05C
S11348B055FB08900100059800F011FD002800DD6B
S11348C05AE5239B0A9DDB43039300270899049828
S11348D000F02BFB002E00D13FE6002F05D0B7429D
S11348E003D03900049800F020FB3100049800F054
S11348F01CFB32E608952E00E3E7002308931E0014
S1134900DFE7C04600002440330400000396089506
S11349102E0031E50E9B0D97002B00D053E70A9D26
S113492008990598FFF742FA0A9B30300D9A2870CF
S113493001350400EB1A9A4278DC151E00DC0125CF
S113494000270A9B5D1905990122049800F076FC62
S11349500899059000F0C3FC00282FDC01D1E3077F
S11349602CD46B1E1A78302AB0D11D00F9E70E9BA7
S1134970002B07DB1D00229B1D4326D10123069A31
S1134980134222D10C9B002B00DC73E70599012212
S1134990049800F053FC0899059000F0A0FC00284E
S11349A004DC00D066E7E30700D463E7392C00D0C9
S11349B05EE70B9B0B9A5D1C392313706B1E1A78F0
S11349C0392A3BD001321A7080E70B9B01330D93D7
S11349D00C9B002B05DD392CEBD00D9D01340B9B7A
S11349E04AE70B9B0F9A0D9D1C709342ABD000239A
S11349F00A220599049800F0B1FA002305900A22CE
S1134A0039000498B74206D100F0A8FA070006005E
S1134A100D9B0B93FCE600F0A1FA31000700002384
S1134A200A22049800F09AFA0600F1E700230A2209
S1134A300599049800F092FA059071E70A9A9A424F
S1134A4005D1039B01330393312313703EE71D000B
S1134A50B4E70A4B269A0A93094B002A01D0269AF6
S1134A6013600A981DB0F0BD0D9B002B00DD56E7C6
S1134A70229B022B00DC52E713E7C046DC7C0000DB
S1134A80E47C0000F7B58A8905000C00130760D4A4
S1134A904B68002B04DC0B6C002B01DC0020FEBDFA
S1134AA0E76A002FFAD000232E682B6080235B0175
S1134AB01A4034D0606DA3895B0706D56368C01AB9
S1134AC0636B002B01D0236CC01A0200216A0023FF
S1134AD02800E76AB847A189431C06D12B681D2B1F
S1134AE031D82C4ADA40D3072DD5002363602369DB
S1134AF02360CB0405D5431C02D12B68002B00D1C5
S1134B006065616B2E600029C8D02300443399424C
S1134B1002D0280000F0C2FC00206063BFE701233C
S1134B20216A2800B847431CC5D12B68002BC2D08A
S1134B301D2B01D0162B01D12E60AFE74023A28993
S1134B401343A381ABE740230B430120A3814042DD
S1134B50A5E70F69002FA1D00B680F60DB1B019341
S1134B600023920700D14B69A360019B002B00DC5A
S1134B7094E7019B3A00216A2800A66AB0470028FE
S1134B8003DC4023A2891343DFE7019B3F181B1A70
S1134B900193EAE7010040200B6970B505000C00A1
S1134BA0002B01D1002070BD002804D08369002BA4
S1134BB001D100F05FF80B4B9C4209D16C680C22C8
S1134BC0A35E002BEED021002800FFF75BFFEAE78D
S1134BD0054B9C4201D1AC68F1E7044B9C42EED1F9
S1134BE0EC68ECE70C7D00002C7D0000EC7C000000
S1134BF010B5024900F0B2F810BDC046994B000050
S1134C00002310B504000360436083608181436620
S1134C10C281036143618361190008225C30FEF79D
S1134C203EFA054B24626362044BA362044BE362C5
S1134C30044B236310BDC04699580000C1580000BE
S1134C40F95800002559000070B568254A1E5543DF
S1134C500E002900743100F06BFC041E08D0002102
S1134C602A00016046600C30A0606832FEF717FA33
S1134C70200070BD836913B50400002B28D1836420
S1134C80C3640365134B144A1B6882620193984200
S1134C9001D101238361200000F020F8606020002E
S1134CA000F01CF8A060200000F018F80022E0607A
S1134CB004216068FFF7A4FF01220921A068FFF71F
S1134CC09FFF02221221E068FFF79AFF0123A361EC
S1134CD013BDC046A47C0000F14B0000F8B51E4B88
S1134CE007001E68B369002B02D13000FFF7C2FF32
S1134CF04836B4687368013B04D53368002B07D089
S1134D003668F6E70C22A55E002D0DD06834F2E774
S1134D1004213800FFF798FF30600028F0D10C23FD
S1134D2004003B602000F8BD012320005B42E381C6
S1134D300233A38165662560A560656025616561B0
S1134D40A561082229005C30FEF7A9F96563A56313
S1134D50A564E564E6E7C046A47C0000F7B504005A
S1134D600700002601914834002C01D13000FEBD1B
S1134D706368A5680093009B013B009301D52468F8
S1134D80F2E7AB89012B08D90E22AB5E013304D0C4
S1134D9029003800019B984706436835EBE700007B
S1134DA0034B1B68186A002800D10248F030704792
S1134DB0000000206400002070B50E001D000E23CA
S1134DC0C95E90B01400002907DA00232B60B38970
S1134DD01B0611D48023DB000FE001AA00F0CEFDF6
S1134DE00028F2DBF022029B12021340054A9B18B2
S1134DF05A4253412B60EDE740230020236010B05A
S1134E0070BDC04600E0FFFFF7B502268B890500A0
S1134E100C00334206D0230047332360236101236F
S1134E206361F7BD01AB6A46FFF7C6FF009907004F
S1134E30280000F07DFB002808D10C22A35E9A050F
S1134E40EFD4032293431E43A681E4E70F4BAB62E6
S1134E508023A28920601343A381009B20616361A6
S1134E60019B002B0DD00E23E15E280000F098FD7D
S1134E70002806D00322A38993431A000123134375
S1134E80A381A0893843A081CBE7C046F14B000041
S1134E9010B5034B0100186800F04AFB10BDC04672
S1134EA000000020C9B28218904201D1002070474E
S1134EB003788B42FBD00130F6E770B5466A0400F4
S1134EC00D00002E07D11020FFF7E2FF606246605C
S1134ED086600660C660666AF368002B13D0636A56
S1134EE0AA00DB689B181868002818D101210E005D
S1134EF0AE40721D9200200000F0C2FA00280CD0CF
S1134F00456086600DE021220421200000F0B8FAFB
S1134F10636AF060DB68002BE1D1002070BD026899
S1134F201A6000230361C360F8E770B5446A0600A1
S1134F300D00002C07D11020FFF7AAFF7062446017
S1134F4084600460C460002D07D0736A6A68DB68FB
S1134F5092009B181A682A601D6070BDF7B51E0088
S1134F6014239C4607000C0000200D698C44634602
S1134F7019881B6851431B0C534389190E0C9B1948
S1134F8089B21E0C1B045B186146013008C18C46B3
S1134F908542ECDC002E1BD0A3689D4212DB6368C3
S1134FA03800591CFFF789FF2100236901909A1CDE
S1134FB092000C310C30FEF769F821003800FFF73D
S1134FC0B4FF019C2B1D9B00E31801355E60256135
S1134FD02000FEBD0300020C0020824201D11B040C
S1134FE010301A0E01D108301B021A0F01D10430FF
S1134FF01B019A0F01D102309B00002B03DB01300F
S11350005B0000D4202070470722036810B501001C
S11350101A400DD001240020234205D1023003425E
S113502003D0E34020000B6010BD9B080B60FBE73E
S11350309CB21000002C01D110201B0CDAB2002A03
S113504001D108301B0A1A0701D104301B099A0741
S113505001D102309B08DA07E8D45B0801D00130A3
S1135060E4E72020E0E710B50C000121FFF725FF5D
S113507001234461036110BDF0B50B691500126989
S113508089B00C00934201DA2C000D0027692E69C7
S1135090A268BB1961680193934200DD0131FFF7F7
S11350A00CFF030014330093009ABB1994469B0031
S11350B09C4413000022049063451CD32A0014343A
S11350C0BF00E3191432B6000593931902940693B2
S11350D0069B9A4211D3019B002B06DD04235B42FD
S11350E09C4463461B68002B51D0049B019A180012
S11350F01A6109B0F0BD04C3DEE71488002C1ED089
S11351000026009D029F01CF079508CD039383B22B
S1135110634319006B46000C9B896043CB180399C9
S11351209B19090C4118180C09180E0C9BB20904A0
S11351300B4307990B60059BBB42E4D82E601368B0
S11351401B0C03931ED00026009B029C1B68009836
S113515007002188039D9BB2694320C82D0C49197F
S11351608E1931040B433B6008CC03991B0C4B4351
S11351707968360C89B25B1805999B191E0CA142FB
S1135180E6D80360009B043204330093A0E7019B3C
S1135190013B01939FE700000323F7B5134005008B
S11351A00E001400002B08D02249013B9A005258EB
S11351B000233100FFF7D2FE0600A310019336D07E
S11351C06C6A002C07D11020FFF762FE686244600D
S11351D084600460C4606F6ABC68002C07D11649FF
S11351E02800FFF740FF00230400B8600360012299
S11351F0019B13420AD0310022002800FFF73CFF34
S1135200070031002800FFF790FE3E00019B5B1071
S113521001930CD02068002807D122002100280027
S1135220FFF72AFF0023206003600400DFE730005B
S1135230FEBDC046407E000071020000F0B50D00C6
S113524017002B69541185B0E318029301330193BD
S11352504968AB680390019A934234DB0398FFF7E3
S11352602CFE00230200060019001432A3422DDB99
S1135270E343DB171C402B001F21A40014192A69E7
S1135280143392009A180F4024D00131C91B8C4664
S113529000211868B84001436046216002CB043401
S11352A0C1409A42F5D82160002902D0029B023302
S11352B00193019B0398013B33612900FFF735FEFD
S11352C0300005B0F0BD01315B00C4E79800115017
S11352D00133CBE702CB02C49A42FBD8E9E70A695F
S11352E0036930B59B1A0ED192001430143184181E
S11352F08918043C043922680D68AA4205D0AA42E0
S1135300924101231343180030BDA042F1D3FAE7C0
S1135310F0B50D0085B00700110028001400FFF758
S1135320DEFF061E08D101003800FFF7C6FD012389
S11353304661036105B0F0BD01230193002804DB3D
S113534023002C001D000023019361683800FFF73F
S1135350B4FD2F000022019B2669C3601434B300FE
S1135360E31802932B6914379B00FB180393030083
S11353709446143320CC04CF0192AAB294446A46D2
S1135380614692882D0C8A1A0199090C691A151420
S113539049190D1492B209040A431A60039AAC46DF
S11353A00433BA42E6D802991A008C4205D3043A6F
S11353B01368002B0ED00661BCE704CC91B26144A3
S11353C00D14120C5219151489B212040A43AC4676
S11353D004C3E8E7013EEAE7F7B51D000121089F91
S11353E01400FFF76AFD2B036D0006001B0B6D0D07
S11353F024D10193002C27D068460094FFF704FEC3
S1135400009C00281ED0019B20211A00091A8A4002
S1135410C340224372610193019CB461631E9C41A9
S113542001343461002D18D0124BED1835232D189A
S11354303D60181A099B18603000FEBD802252039B
S11354401343D6E77461E7E701A8FFF7DDFD012404
S1135450019B346173612030E4E7074BC018074BAC
S11354603860E3189B00F3185869FFF7B3FD640133
S1135470201ADFE7CDFBFFFFCEFBFFFFFFFFFF3F5F
S11354804A4370B51100140000F052F8051E03D011
S113549022000021FDF703FE280070BD70B5050051
S11354A0002910D00C1F2368002B00DAE418280010
S11354B000F0AEFA1D4A1368002B05D16360146036
S11354C0280000F0A6FA70BDA34209D9216860182B
S11354D08342F3D118685B6841182160EEE713003A
S11354E05A68002A01D0A242F9D919685818A04272
S11354F00BD120680918581819608242E0D110684D
S11355005268411819605A60DAE7A04202D90C23A4
S11355102B60D5E721686018824203D11068526875
S11355204118216062605C60CAE7C04678030020CD
S1135530032370B5CD1C9D43083506000C2D1ED2E7
S11355400C25A9421DD8300000F062FA254A1468DF
S11355502100002919D1244C2368002B03D13000E9
S113556000F088F920602900300000F083F9431C22
S11355702CD10C233000336000F04BFA03E0002DF3
S1135580DFDA0C233360002070BD0B685B1B1AD478
S11355900B2B03D90B60CC18256003E08C420ED191
S11355A063681360300000F034FA200007220B30E7
S11355B0231D9043C31AE7D05A42E250E4E74B68F4
S11355C063600C00EEE70C004968C2E70323C41CC7
S11355D09C43A042E0D0211A300000F04BF9431C58
S11355E0DAD1C6E7780300207C030020936810B565
S11355F0013B9360002B05DA9469A34208DBCBB22C
S11356000A2B05D01368581C10601970C8B210BD5D
S1135610FEF700FBFBE7F8B506000F001400D518F1
S1135620AC4201D1002007E021783A003000FFF7B6
S1135630DDFF0134431CF3D1F8BD0000F0B59FB089
S113564006000F0014000593002804D08369002B82
S113565001D1FFF70FFB7F4B9F425CD17768BB8979
S11356601B0762D53B69002B5FD0002306AD6B613D
S113567020336B761033AB760294029C2378002B94
S11356805DD1029BE31A04930DD0049B029A390066
S11356903000FFF7C0FF431C00D1CCE06A69049BD3
S11356A0944663446B612378002B00D1C3E001224C
S11356B0002352426A6002A95432521801342B600A
S11356C0EB60AB601370AB65217805226248FFF78D
S11356D0E9FB631C9C46002835D12968CB0604D518
S11356E0532302AA20309B1818700B0704D55323A8
S11356F02B2002AA9B18187023782A2B2CD0002068
S11357000A21099B2278303A092A00D86BE0002844
S11357102AD0099328E0514B9F4201D1B7689EE7F4
S11357204F4B9F429BD1F76899E739003000FEF751
S1135730C7FA002899D0012040421FB0F0BD252BA4
S11357409FD001349AE7444B2968C01A012383404F
S11357500B432B606446B7E7059B181D1B68059037
S1135760002B3ADB0993644623782E2B0BD1637804
S1135770621C2A2B3FD1059B02341A1D1B6805921B
S1135780002B35DB0793217803223648FFF78AFB89
S1135790002807D0334B2A68C01A402383401343A0
S11357A02B6001342178631C06222F48029329764A
S11357B0FFF778FB002844D02C4B002B2FD129680D
S11357C0059B0722C90528D59B18934308330593E5
S11357D06B69039A9B186B614FE75B42EB60022392
S11357E00B432B60BFE74B4301349B18012089E72F
S11357F001235B42C6E7002314000A201A006B60F1
S113580021783039092903D9002BBCD00792BAE793
S11358104243013452180123F2E70733D5E705ABBD
S113582000933A00124B29003000FDF7DDFC039091
S1135830039B0133CCD1BB895B0600D57BE70B9876
S11358407BE705AB00933A00094B29003000FDF7D4
S113585085FFECE70C7D00004C7E00002C7D0000F1
S1135860EC7C0000527E0000567E0000E93100000E
S113587017560000002370B5064C0500080023608D
S1135880FBF7D6FE431C03D12368002B00D02B600A
S113589070BDC046A404002070B50C000E25495FFD
S11358A000F0B8F8002803DB636D1B18636570BD56
S11358B0A389024A1340A381F9E7C046FFEFFFFF23
S11358C0F8B51F008B8905000C001600DB0505D513
S11358D00E23C95E0022022300F074F8A389054A4E
S11358E028001340A38132000E23E15E3B0000F048
S11358F01FF8F8BDFFEFFFFF70B50C000E25495FE0
S113590000F060F8A389421C03D1054A1340A38127
S113591070BD802252011343A3816065F8E7C0463D
S1135920FFEFFFFF10B50E23C95E00F015F810BDA0
S113593070B50500080011000022064C22601A0010
S1135940FDF722FB431C03D12368002B00D02B60FE
S113595070BDC046A4040020002370B5064C0500A9
S113596008002360FBF776FE431C03D12368002B59
S113597000D02B6070BDC046A4040020002370B585
S1135980064C0500080011002360FBF766FE431C6B
S113599003D12368002B00D02B6070BDA404002029
S11359A0002370B5064C050008002360FBF75AFE7F
S11359B0431C03D12368002B00D02B6070BDC0466C
S11359C0A404002070B50500080011000022064C54
S11359D022601A00FBF748FE431C03D12368002B06
S11359E000D02B6070BDC046A404002082B0002902
S11359F000D101A9101E06D0002B06D013780B602D
S1135A001078431E984102B0704702204042FAE7E2
S1135A107047704770B50500080011000022064C5D
S1135A2022601A00FDF79CFA431C03D12368002B63
S1135A3000D02B6070BDC046A40400200B1E04D00F
S1135A40FF2A04D98A2303608B3B180070470A702D
S1135A500123FAE702B4714649084900095C490088
S1135A608E4402BC7047C046002243088B4274D364
S1135A7003098B425FD3030A8B4244D3030B8B424B
S1135A8028D3030C8B420DD3FF22090212BA030C54
S1135A908B4202D31212090265D0030B8B4219D335
S1135AA000E0090AC30B8B4201D3CB03C01A524155
S1135AB0830B8B4201D38B03C01A5241430B8B429D
S1135AC001D34B03C01A5241030B8B4201D30B0386
S1135AD0C01A5241C30A8B4201D3CB02C01A5241AD
S1135AE0830A8B4201D38B02C01A5241430A8B4270
S1135AF001D34B02C01A5241030A8B4201D30B0259
S1135B00C01A5241CDD2C3098B4201D3CB01C01A72
S1135B10524183098B4201D38B01C01A524143097C
S1135B208B4201D34B01C01A524103098B4201D36A
S1135B300B01C01A5241C3088B4201D3CB00C01AD7
S1135B40524183088B4201D38B00C01A524143084F
S1135B508B4201D34B00C01A5241411A00D2014674
S1135B60524110467047FFE701B5002000F0F0F8FD
S1135B7002BDC0460029F7D076E7704703460B43C1
S1135B807FD4002243088B4274D303098B425FD332
S1135B90030A8B4244D3030B8B4228D3030C8B425E
S1135BA00DD3FF22090212BA030C8B4202D3121244
S1135BB0090265D0030B8B4219D300E0090AC30B19
S1135BC08B4201D3CB03C01A5241830B8B4201D3C6
S1135BD08B03C01A5241430B8B4201D34B03C01AAF
S1135BE05241030B8B4201D30B03C01A5241C30A27
S1135BF08B4201D3CB02C01A5241830A8B4201D398
S1135C008B02C01A5241430A8B4201D34B02C01A81
S1135C105241030A8B4201D30B02C01A5241CDD226
S1135C20C3098B4201D3CB01C01A524183098B4271
S1135C3001D38B01C01A524143098B4201D34B015A
S1135C40C01A524103098B4201D30B01C01A5241BD
S1135C50C3088B4201D3CB00C01A524183088B4244
S1135C6001D38B00C01A524143088B4201D34B002D
S1135C70C01A5241411A00D201465241104670479F
S1135C805DE0CA0F00D04942031000D340425340A4
S1135C9000229C4603098B422DD3030A8B4212D364
S1135CA0FC22890112BA030A8B420CD38901921196
S1135CB08B4208D3890192118B4204D389013AD0D3
S1135CC0921100E08909C3098B4201D3CB01C01AA8
S1135CD0524183098B4201D38B01C01A52414309BB
S1135CE08B4201D34B01C01A524103098B4201D3A9
